{
  "_format": "hh-sol-artifact-1",
  "contractName": "GiftNFT",
  "sourceName": "contracts/GiftNFT.sol",
  "abi": [
    {
      "inputs": [
        {
          "internalType": "address",
          "name": "router",
          "type": "address"
        },
        {
          "internalType": "bytes32",
          "name": "_donId",
          "type": "bytes32"
        },
        {
          "internalType": "string",
          "name": "baseURI",
          "type": "string"
        }
      ],
      "stateMutability": "nonpayable",
      "type": "constructor"
    },
    {
      "inputs": [
        {
          "internalType": "address",
          "name": "sender",
          "type": "address"
        },
        {
          "internalType": "uint256",
          "name": "tokenId",
          "type": "uint256"
        },
        {
          "internalType": "address",
          "name": "owner",
          "type": "address"
        }
      ],
      "name": "ERC721IncorrectOwner",
      "type": "error"
    },
    {
      "inputs": [
        {
          "internalType": "address",
          "name": "operator",
          "type": "address"
        },
        {
          "internalType": "uint256",
          "name": "tokenId",
          "type": "uint256"
        }
      ],
      "name": "ERC721InsufficientApproval",
      "type": "error"
    },
    {
      "inputs": [
        {
          "internalType": "address",
          "name": "approver",
          "type": "address"
        }
      ],
      "name": "ERC721InvalidApprover",
      "type": "error"
    },
    {
      "inputs": [
        {
          "internalType": "address",
          "name": "operator",
          "type": "address"
        }
      ],
      "name": "ERC721InvalidOperator",
      "type": "error"
    },
    {
      "inputs": [
        {
          "internalType": "address",
          "name": "owner",
          "type": "address"
        }
      ],
      "name": "ERC721InvalidOwner",
      "type": "error"
    },
    {
      "inputs": [
        {
          "internalType": "address",
          "name": "receiver",
          "type": "address"
        }
      ],
      "name": "ERC721InvalidReceiver",
      "type": "error"
    },
    {
      "inputs": [
        {
          "internalType": "address",
          "name": "sender",
          "type": "address"
        }
      ],
      "name": "ERC721InvalidSender",
      "type": "error"
    },
    {
      "inputs": [
        {
          "internalType": "uint256",
          "name": "tokenId",
          "type": "uint256"
        }
      ],
      "name": "ERC721NonexistentToken",
      "type": "error"
    },
    {
      "inputs": [],
      "name": "EmptyArgs",
      "type": "error"
    },
    {
      "inputs": [],
      "name": "EmptySource",
      "type": "error"
    },
    {
      "inputs": [],
      "name": "NoInlineSecrets",
      "type": "error"
    },
    {
      "inputs": [],
      "name": "OnlyRouterCanFulfill",
      "type": "error"
    },
    {
      "anonymous": false,
      "inputs": [
        {
          "indexed": true,
          "internalType": "address",
          "name": "owner",
          "type": "address"
        },
        {
          "indexed": true,
          "internalType": "address",
          "name": "approved",
          "type": "address"
        },
        {
          "indexed": true,
          "internalType": "uint256",
          "name": "tokenId",
          "type": "uint256"
        }
      ],
      "name": "Approval",
      "type": "event"
    },
    {
      "anonymous": false,
      "inputs": [
        {
          "indexed": true,
          "internalType": "address",
          "name": "owner",
          "type": "address"
        },
        {
          "indexed": true,
          "internalType": "address",
          "name": "operator",
          "type": "address"
        },
        {
          "indexed": false,
          "internalType": "bool",
          "name": "approved",
          "type": "bool"
        }
      ],
      "name": "ApprovalForAll",
      "type": "event"
    },
    {
      "anonymous": false,
      "inputs": [
        {
          "indexed": false,
          "internalType": "uint256",
          "name": "_fromTokenId",
          "type": "uint256"
        },
        {
          "indexed": false,
          "internalType": "uint256",
          "name": "_toTokenId",
          "type": "uint256"
        }
      ],
      "name": "BatchMetadataUpdate",
      "type": "event"
    },
    {
      "anonymous": false,
      "inputs": [
        {
          "indexed": false,
          "internalType": "uint256",
          "name": "_tokenId",
          "type": "uint256"
        }
      ],
      "name": "MetadataUpdate",
      "type": "event"
    },
    {
      "anonymous": false,
      "inputs": [
        {
          "indexed": true,
          "internalType": "address",
          "name": "from",
          "type": "address"
        },
        {
          "indexed": true,
          "internalType": "address",
          "name": "to",
          "type": "address"
        }
      ],
      "name": "OwnershipTransferRequested",
      "type": "event"
    },
    {
      "anonymous": false,
      "inputs": [
        {
          "indexed": true,
          "internalType": "address",
          "name": "from",
          "type": "address"
        },
        {
          "indexed": true,
          "internalType": "address",
          "name": "to",
          "type": "address"
        }
      ],
      "name": "OwnershipTransferred",
      "type": "event"
    },
    {
      "anonymous": false,
      "inputs": [
        {
          "indexed": true,
          "internalType": "bytes32",
          "name": "id",
          "type": "bytes32"
        }
      ],
      "name": "RequestFulfilled",
      "type": "event"
    },
    {
      "anonymous": false,
      "inputs": [
        {
          "indexed": true,
          "internalType": "bytes32",
          "name": "id",
          "type": "bytes32"
        }
      ],
      "name": "RequestSent",
      "type": "event"
    },
    {
      "anonymous": false,
      "inputs": [
        {
          "indexed": true,
          "internalType": "address",
          "name": "from",
          "type": "address"
        },
        {
          "indexed": true,
          "internalType": "address",
          "name": "to",
          "type": "address"
        },
        {
          "indexed": true,
          "internalType": "uint256",
          "name": "tokenId",
          "type": "uint256"
        }
      ],
      "name": "Transfer",
      "type": "event"
    },
    {
      "inputs": [],
      "name": "_tokenId",
      "outputs": [
        {
          "internalType": "uint256",
          "name": "",
          "type": "uint256"
        }
      ],
      "stateMutability": "view",
      "type": "function"
    },
    {
      "inputs": [],
      "name": "acceptOwnership",
      "outputs": [],
      "stateMutability": "nonpayable",
      "type": "function"
    },
    {
      "inputs": [
        {
          "internalType": "address",
          "name": "to",
          "type": "address"
        },
        {
          "internalType": "uint256",
          "name": "tokenId",
          "type": "uint256"
        }
      ],
      "name": "approve",
      "outputs": [],
      "stateMutability": "nonpayable",
      "type": "function"
    },
    {
      "inputs": [
        {
          "internalType": "address",
          "name": "owner",
          "type": "address"
        }
      ],
      "name": "balanceOf",
      "outputs": [
        {
          "internalType": "uint256",
          "name": "",
          "type": "uint256"
        }
      ],
      "stateMutability": "view",
      "type": "function"
    },
    {
      "inputs": [],
      "name": "donId",
      "outputs": [
        {
          "internalType": "bytes32",
          "name": "",
          "type": "bytes32"
        }
      ],
      "stateMutability": "view",
      "type": "function"
    },
    {
      "inputs": [
        {
          "internalType": "uint256",
          "name": "tokenId",
          "type": "uint256"
        }
      ],
      "name": "getApproved",
      "outputs": [
        {
          "internalType": "address",
          "name": "",
          "type": "address"
        }
      ],
      "stateMutability": "view",
      "type": "function"
    },
    {
      "inputs": [
        {
          "internalType": "bytes32",
          "name": "requestId",
          "type": "bytes32"
        },
        {
          "internalType": "bytes",
          "name": "response",
          "type": "bytes"
        },
        {
          "internalType": "bytes",
          "name": "err",
          "type": "bytes"
        }
      ],
      "name": "handleOracleFulfillment",
      "outputs": [],
      "stateMutability": "nonpayable",
      "type": "function"
    },
    {
      "inputs": [
        {
          "internalType": "address",
          "name": "owner",
          "type": "address"
        },
        {
          "internalType": "address",
          "name": "operator",
          "type": "address"
        }
      ],
      "name": "isApprovedForAll",
      "outputs": [
        {
          "internalType": "bool",
          "name": "",
          "type": "bool"
        }
      ],
      "stateMutability": "view",
      "type": "function"
    },
    {
      "inputs": [
        {
          "internalType": "address",
          "name": "to",
          "type": "address"
        },
        {
          "internalType": "string",
          "name": "uri",
          "type": "string"
        }
      ],
      "name": "mint",
      "outputs": [],
      "stateMutability": "nonpayable",
      "type": "function"
    },
    {
      "inputs": [],
      "name": "name",
      "outputs": [
        {
          "internalType": "string",
          "name": "",
          "type": "string"
        }
      ],
      "stateMutability": "view",
      "type": "function"
    },
    {
      "inputs": [],
      "name": "nextId",
      "outputs": [
        {
          "internalType": "uint256",
          "name": "",
          "type": "uint256"
        }
      ],
      "stateMutability": "view",
      "type": "function"
    },
    {
      "inputs": [],
      "name": "owner",
      "outputs": [
        {
          "internalType": "address",
          "name": "",
          "type": "address"
        }
      ],
      "stateMutability": "view",
      "type": "function"
    },
    {
      "inputs": [
        {
          "internalType": "uint256",
          "name": "tokenId",
          "type": "uint256"
        }
      ],
      "name": "ownerOf",
      "outputs": [
        {
          "internalType": "address",
          "name": "",
          "type": "address"
        }
      ],
      "stateMutability": "view",
      "type": "function"
    },
    {
      "inputs": [],
      "name": "s_lastError",
      "outputs": [
        {
          "internalType": "bytes",
          "name": "",
          "type": "bytes"
        }
      ],
      "stateMutability": "view",
      "type": "function"
    },
    {
      "inputs": [],
      "name": "s_lastRequestId",
      "outputs": [
        {
          "internalType": "bytes32",
          "name": "",
          "type": "bytes32"
        }
      ],
      "stateMutability": "view",
      "type": "function"
    },
    {
      "inputs": [],
      "name": "s_lastResponse",
      "outputs": [
        {
          "internalType": "bytes",
          "name": "",
          "type": "bytes"
        }
      ],
      "stateMutability": "view",
      "type": "function"
    },
    {
      "inputs": [
        {
          "internalType": "address",
          "name": "from",
          "type": "address"
        },
        {
          "internalType": "address",
          "name": "to",
          "type": "address"
        },
        {
          "internalType": "uint256",
          "name": "tokenId",
          "type": "uint256"
        }
      ],
      "name": "safeTransferFrom",
      "outputs": [],
      "stateMutability": "nonpayable",
      "type": "function"
    },
    {
      "inputs": [
        {
          "internalType": "address",
          "name": "from",
          "type": "address"
        },
        {
          "internalType": "address",
          "name": "to",
          "type": "address"
        },
        {
          "internalType": "uint256",
          "name": "tokenId",
          "type": "uint256"
        },
        {
          "internalType": "bytes",
          "name": "data",
          "type": "bytes"
        }
      ],
      "name": "safeTransferFrom",
      "outputs": [],
      "stateMutability": "nonpayable",
      "type": "function"
    },
    {
      "inputs": [
        {
          "internalType": "string",
          "name": "source",
          "type": "string"
        },
        {
          "internalType": "enum FunctionsRequest.Location",
          "name": "secretsLocation",
          "type": "uint8"
        },
        {
          "internalType": "bytes",
          "name": "encryptedSecretsReference",
          "type": "bytes"
        },
        {
          "internalType": "string[]",
          "name": "args",
          "type": "string[]"
        },
        {
          "internalType": "bytes[]",
          "name": "bytesArgs",
          "type": "bytes[]"
        },
        {
          "internalType": "uint64",
          "name": "subscriptionId",
          "type": "uint64"
        },
        {
          "internalType": "uint32",
          "name": "callbackGasLimit",
          "type": "uint32"
        }
      ],
      "name": "sendRequest",
      "outputs": [],
      "stateMutability": "nonpayable",
      "type": "function"
    },
    {
      "inputs": [
        {
          "internalType": "address",
          "name": "operator",
          "type": "address"
        },
        {
          "internalType": "bool",
          "name": "approved",
          "type": "bool"
        }
      ],
      "name": "setApprovalForAll",
      "outputs": [],
      "stateMutability": "nonpayable",
      "type": "function"
    },
    {
      "inputs": [
        {
          "internalType": "string",
          "name": "baseURI",
          "type": "string"
        }
      ],
      "name": "setBaseURI",
      "outputs": [],
      "stateMutability": "nonpayable",
      "type": "function"
    },
    {
      "inputs": [
        {
          "internalType": "bytes32",
          "name": "newDonId",
          "type": "bytes32"
        }
      ],
      "name": "setDonId",
      "outputs": [],
      "stateMutability": "nonpayable",
      "type": "function"
    },
    {
      "inputs": [
        {
          "internalType": "bytes4",
          "name": "interfaceId",
          "type": "bytes4"
        }
      ],
      "name": "supportsInterface",
      "outputs": [
        {
          "internalType": "bool",
          "name": "",
          "type": "bool"
        }
      ],
      "stateMutability": "view",
      "type": "function"
    },
    {
      "inputs": [],
      "name": "symbol",
      "outputs": [
        {
          "internalType": "string",
          "name": "",
          "type": "string"
        }
      ],
      "stateMutability": "view",
      "type": "function"
    },
    {
      "inputs": [
        {
          "internalType": "uint256",
          "name": "tokenId",
          "type": "uint256"
        }
      ],
      "name": "tokenURI",
      "outputs": [
        {
          "internalType": "string",
          "name": "",
          "type": "string"
        }
      ],
      "stateMutability": "view",
      "type": "function"
    },
    {
      "inputs": [
        {
          "internalType": "address",
          "name": "from",
          "type": "address"
        },
        {
          "internalType": "address",
          "name": "to",
          "type": "address"
        },
        {
          "internalType": "uint256",
          "name": "tokenId",
          "type": "uint256"
        }
      ],
      "name": "transferFrom",
      "outputs": [],
      "stateMutability": "nonpayable",
      "type": "function"
    },
    {
      "inputs": [
        {
          "internalType": "address",
          "name": "to",
          "type": "address"
        }
      ],
      "name": "transferOwnership",
      "outputs": [],
      "stateMutability": "nonpayable",
      "type": "function"
    }
  ],
  "bytecode": "0x60a06040523480156200001157600080fd5b50604051620050a0380380620050a0833981810160405281019062000037919062000586565b33806000856040518060400160405280600681526020017f50696e6e696500000000000000000000000000000000000000000000000000008152506040518060400160405280600381526020017f50494e00000000000000000000000000000000000000000000000000000000008152508160009081620000b991906200084c565b508060019081620000cb91906200084c565b5050508073ffffffffffffffffffffffffffffffffffffffff1660808173ffffffffffffffffffffffffffffffffffffffff168152505050600073ffffffffffffffffffffffffffffffffffffffff168273ffffffffffffffffffffffffffffffffffffffff160362000175576040517f08c379a00000000000000000000000000000000000000000000000000000000081526004016200016c9062000994565b60405180910390fd5b81600760006101000a81548173ffffffffffffffffffffffffffffffffffffffff021916908373ffffffffffffffffffffffffffffffffffffffff160217905550600073ffffffffffffffffffffffffffffffffffffffff168173ffffffffffffffffffffffffffffffffffffffff1614620001fd57620001fc816200022260201b60201c565b5b50505080600e90816200021191906200084c565b508160098190555050505062000a28565b3373ffffffffffffffffffffffffffffffffffffffff168173ffffffffffffffffffffffffffffffffffffffff160362000293576040517f08c379a00000000000000000000000000000000000000000000000000000000081526004016200028a9062000a06565b60405180910390fd5b80600860006101000a81548173ffffffffffffffffffffffffffffffffffffffff021916908373ffffffffffffffffffffffffffffffffffffffff1602179055508073ffffffffffffffffffffffffffffffffffffffff16600760009054906101000a900473ffffffffffffffffffffffffffffffffffffffff1673ffffffffffffffffffffffffffffffffffffffff167fed8889f560326eb138920d842192f0eb3dd22b4f139c87a2c57538e05bae127860405160405180910390a350565b6000604051905090565b600080fd5b600080fd5b600073ffffffffffffffffffffffffffffffffffffffff82169050919050565b6000620003948262000367565b9050919050565b620003a68162000387565b8114620003b257600080fd5b50565b600081519050620003c6816200039b565b92915050565b6000819050919050565b620003e181620003cc565b8114620003ed57600080fd5b50565b6000815190506200040181620003d6565b92915050565b600080fd5b600080fd5b6000601f19601f8301169050919050565b7f4e487b7100000000000000000000000000000000000000000000000000000000600052604160045260246000fd5b6200045c8262000411565b810181811067ffffffffffffffff821117156200047e576200047d62000422565b5b80604052505050565b60006200049362000353565b9050620004a1828262000451565b919050565b600067ffffffffffffffff821115620004c457620004c362000422565b5b620004cf8262000411565b9050602081019050919050565b60005b83811015620004fc578082015181840152602081019050620004df565b60008484015250505050565b60006200051f6200051984620004a6565b62000487565b9050828152602081018484840111156200053e576200053d6200040c565b5b6200054b848285620004dc565b509392505050565b600082601f8301126200056b576200056a62000407565b5b81516200057d84826020860162000508565b91505092915050565b600080600060608486031215620005a257620005a16200035d565b5b6000620005b286828701620003b5565b9350506020620005c586828701620003f0565b925050604084015167ffffffffffffffff811115620005e957620005e862000362565b5b620005f78682870162000553565b9150509250925092565b600081519050919050565b7f4e487b7100000000000000000000000000000000000000000000000000000000600052602260045260246000fd5b600060028204905060018216806200065457607f821691505b6020821081036200066a57620006696200060c565b5b50919050565b60008190508160005260206000209050919050565b60006020601f8301049050919050565b600082821b905092915050565b600060088302620006d47fffffffffffffffffffffffffffffffffffffffffffffffffffffffffffffffff8262000695565b620006e0868362000695565b95508019841693508086168417925050509392505050565b6000819050919050565b6000819050919050565b60006200072d620007276200072184620006f8565b62000702565b620006f8565b9050919050565b6000819050919050565b62000749836200070c565b62000761620007588262000734565b848454620006a2565b825550505050565b600090565b6200077862000769565b620007858184846200073e565b505050565b5b81811015620007ad57620007a16000826200076e565b6001810190506200078b565b5050565b601f821115620007fc57620007c68162000670565b620007d18462000685565b81016020851015620007e1578190505b620007f9620007f08562000685565b8301826200078a565b50505b505050565b600082821c905092915050565b6000620008216000198460080262000801565b1980831691505092915050565b60006200083c83836200080e565b9150826002028217905092915050565b620008578262000601565b67ffffffffffffffff81111562000873576200087262000422565b5b6200087f82546200063b565b6200088c828285620007b1565b600060209050601f831160018114620008c45760008415620008af578287015190505b620008bb85826200082e565b8655506200092b565b601f198416620008d48662000670565b60005b82811015620008fe57848901518255600182019150602085019450602081019050620008d7565b868310156200091e57848901516200091a601f8916826200080e565b8355505b6001600288020188555050505b505050505050565b600082825260208201905092915050565b7f43616e6e6f7420736574206f776e657220746f207a65726f0000000000000000600082015250565b60006200097c60188362000933565b9150620009898262000944565b602082019050919050565b60006020820190508181036000830152620009af816200096d565b9050919050565b7f43616e6e6f74207472616e7366657220746f2073656c66000000000000000000600082015250565b6000620009ee60178362000933565b9150620009fb82620009b6565b602082019050919050565b6000602082019050818103600083015262000a2181620009df565b9050919050565b60805161465562000a4b600039600081816105f2015261163e01526146556000f3fe608060405234801561001057600080fd5b50600436106101a95760003560e01c80636352211e116100f9578063a22cb46511610097578063c87b56dd11610071578063c87b56dd14610482578063d0def521146104b2578063e985e9c5146104ce578063f2fde38b146104fe576101a9565b8063a22cb4651461042c578063b1e2174914610448578063b88d4fde14610466576101a9565b806379ba5097116100d357806379ba5097146103c85780638da5cb5b146103d25780638dbe7b9d146103f057806395d89b411461040e576101a9565b80636352211e1461034c57806370a082311461037c57806378ca5de7146103ac576101a9565b806323b872dd1161016657806342842e0e1161014057806342842e0e146102d85780634b0795a8146102f457806355f804b31461031257806361b8ce8c1461032e576101a9565b806323b872dd14610280578063248225141461029c5780633944ea3a146102ba576101a9565b806301ffc9a7146101ae57806306fdde03146101de578063081812fc146101fc578063095ea7b31461022c5780630ca7617514610248578063231c161914610264575b600080fd5b6101c860048036038101906101c39190612e74565b61051a565b6040516101d59190612ebc565b60405180910390f35b6101e661052c565b6040516101f39190612f67565b60405180910390f35b61021660048036038101906102119190612fbf565b6105be565b604051610223919061302d565b60405180910390f35b61024660048036038101906102419190613074565b6105da565b005b610262600480360381019061025d919061321f565b6105f0565b005b61027e600480360381019061027991906134ad565b6106b2565b005b61029a600480360381019061029591906135d1565b61081d565b005b6102a461091f565b6040516102b19190613633565b60405180910390f35b6102c2610925565b6040516102cf91906136a3565b60405180910390f35b6102f260048036038101906102ed91906135d1565b6109b3565b005b6102fc6109d3565b60405161030991906136a3565b60405180910390f35b61032c60048036038101906103279190613766565b610a61565b005b610336610a7c565b6040516103439190613633565b60405180910390f35b61036660048036038101906103619190612fbf565b610a86565b604051610373919061302d565b60405180910390f35b610396600480360381019061039191906137af565b610a98565b6040516103a39190613633565b60405180910390f35b6103c660048036038101906103c191906137dc565b610b52565b005b6103d0610b64565b005b6103da610cfb565b6040516103e7919061302d565b60405180910390f35b6103f8610d25565b6040516104059190613818565b60405180910390f35b610416610d2b565b6040516104239190612f67565b60405180910390f35b6104466004803603810190610441919061385f565b610dbd565b005b610450610dd3565b60405161045d9190613818565b60405180910390f35b610480600480360381019061047b919061389f565b610dd9565b005b61049c60048036038101906104979190612fbf565b610df6565b6040516104a99190612f67565b60405180910390f35b6104cc60048036038101906104c79190613922565b610e08565b005b6104e860048036038101906104e3919061397e565b610e44565b6040516104f59190612ebc565b60405180910390f35b610518600480360381019061051391906137af565b610ed8565b005b600061052582610eec565b9050919050565b60606000805461053b906139ed565b80601f0160208091040260200160405190810160405280929190818152602001828054610567906139ed565b80156105b45780601f10610589576101008083540402835291602001916105b4565b820191906000526020600020905b81548152906001019060200180831161059757829003601f168201915b5050505050905090565b60006105c982610f4d565b506105d382610fd5565b9050919050565b6105ec82826105e7611012565b61101a565b5050565b7f000000000000000000000000000000000000000000000000000000000000000073ffffffffffffffffffffffffffffffffffffffff163373ffffffffffffffffffffffffffffffffffffffff1614610675576040517fc6829f8300000000000000000000000000000000000000000000000000000000815260040160405180910390fd5b61068083838361102c565b827f85e1543bf2f84fe80c6badbce3648c8539ad1df4d2b3d822938ca0538be727e660405160405180910390a2505050565b6106ba611051565b6106c2612d5c565b61071e6000808e8e8080601f016020809104026020016040519081016040528093929190818152602001838380828437600081840152601f19601f82011690508083019250505050505050846110e3909392919063ffffffff16565b898160200190600281111561073657610735613a1e565b5b9081600281111561074a57610749613a1e565b5b8152505088888080601f016020809104026020016040519081016040528093929190818152602001838380828437600081840152601f19601f82011690508083019250505050505050816080018190525060008787905011156107c7576107c68787906107b79190613b00565b8261118d90919063ffffffff16565b5b60008585905011156107f3576107f28585906107e39190613bc8565b826111d590919063ffffffff16565b5b6108096107ff8261121d565b8484600954611639565b600a81905550505050505050505050505050565b600073ffffffffffffffffffffffffffffffffffffffff168273ffffffffffffffffffffffffffffffffffffffff160361088f5760006040517f64a0ae92000000000000000000000000000000000000000000000000000000008152600401610886919061302d565b60405180910390fd5b60006108a3838361089e611012565b61171c565b90508373ffffffffffffffffffffffffffffffffffffffff168173ffffffffffffffffffffffffffffffffffffffff1614610919578382826040517f64283d7b00000000000000000000000000000000000000000000000000000000815260040161091093929190613bdd565b60405180910390fd5b50505050565b600d5481565b600b8054610932906139ed565b80601f016020809104026020016040519081016040528092919081815260200182805461095e906139ed565b80156109ab5780601f10610980576101008083540402835291602001916109ab565b820191906000526020600020905b81548152906001019060200180831161098e57829003601f168201915b505050505081565b6109ce83838360405180602001604052806000815250610dd9565b505050565b600c80546109e0906139ed565b80601f0160208091040260200160405190810160405280929190818152602001828054610a0c906139ed565b8015610a595780601f10610a2e57610100808354040283529160200191610a59565b820191906000526020600020905b815481529060010190602001808311610a3c57829003601f168201915b505050505081565b610a69611051565b80600e9081610a789190613dc0565b5050565b6000600d54905090565b6000610a9182610f4d565b9050919050565b60008073ffffffffffffffffffffffffffffffffffffffff168273ffffffffffffffffffffffffffffffffffffffff1603610b0b5760006040517f89c62b64000000000000000000000000000000000000000000000000000000008152600401610b02919061302d565b60405180910390fd5b600360008373ffffffffffffffffffffffffffffffffffffffff1673ffffffffffffffffffffffffffffffffffffffff168152602001908152602001600020549050919050565b610b5a611051565b8060098190555050565b600860009054906101000a900473ffffffffffffffffffffffffffffffffffffffff1673ffffffffffffffffffffffffffffffffffffffff163373ffffffffffffffffffffffffffffffffffffffff1614610bf4576040517f08c379a0000000000000000000000000000000000000000000000000000000008152600401610beb90613ede565b60405180910390fd5b6000600760009054906101000a900473ffffffffffffffffffffffffffffffffffffffff16905033600760006101000a81548173ffffffffffffffffffffffffffffffffffffffff021916908373ffffffffffffffffffffffffffffffffffffffff1602179055506000600860006101000a81548173ffffffffffffffffffffffffffffffffffffffff021916908373ffffffffffffffffffffffffffffffffffffffff1602179055503373ffffffffffffffffffffffffffffffffffffffff168173ffffffffffffffffffffffffffffffffffffffff167f8be0079c531659141344cd1fd0a4f28419497f9722a3daafe3b4186f6b6457e060405160405180910390a350565b6000600760009054906101000a900473ffffffffffffffffffffffffffffffffffffffff16905090565b60095481565b606060018054610d3a906139ed565b80601f0160208091040260200160405190810160405280929190818152602001828054610d66906139ed565b8015610db35780601f10610d8857610100808354040283529160200191610db3565b820191906000526020600020905b815481529060010190602001808311610d9657829003601f168201915b5050505050905090565b610dcf610dc8611012565b8383611936565b5050565b600a5481565b610de484848461081d565b610df084848484611aa5565b50505050565b6060610e0182611c5c565b9050919050565b610e10611051565b6000600d6000815480929190610e2590613f2d565b919050559050610e358382611d6f565b610e3f8183611e68565b505050565b6000600560008473ffffffffffffffffffffffffffffffffffffffff1673ffffffffffffffffffffffffffffffffffffffff16815260200190815260200160002060008373ffffffffffffffffffffffffffffffffffffffff1673ffffffffffffffffffffffffffffffffffffffff16815260200190815260200160002060009054906101000a900460ff16905092915050565b610ee0611051565b610ee981611ec4565b50565b6000634906490660e01b7bffffffffffffffffffffffffffffffffffffffffffffffffffffffff1916827bffffffffffffffffffffffffffffffffffffffffffffffffffffffff19161480610f465750610f4582611ff2565b5b9050919050565b600080610f59836120d4565b9050600073ffffffffffffffffffffffffffffffffffffffff168173ffffffffffffffffffffffffffffffffffffffff1603610fcc57826040517f7e273289000000000000000000000000000000000000000000000000000000008152600401610fc39190613633565b60405180910390fd5b80915050919050565b60006004600083815260200190815260200160002060009054906101000a900473ffffffffffffffffffffffffffffffffffffffff169050919050565b600033905090565b6110278383836001612111565b505050565b81600b908161103b9190613fd0565b5080600c908161104b9190613fd0565b50505050565b600760009054906101000a900473ffffffffffffffffffffffffffffffffffffffff1673ffffffffffffffffffffffffffffffffffffffff163373ffffffffffffffffffffffffffffffffffffffff16146110e1576040517f08c379a00000000000000000000000000000000000000000000000000000000081526004016110d8906140ee565b60405180910390fd5b565b600081510361111e576040517f22ce3edd00000000000000000000000000000000000000000000000000000000815260040160405180910390fd5b828460000190600281111561113657611135613a1e565b5b9081600281111561114a57611149613a1e565b5b81525050818460400190600081111561116657611165613a1e565b5b9081600081111561117a57611179613a1e565b5b8152505080846060018190525050505050565b60008151036111c8576040517ffe936cb700000000000000000000000000000000000000000000000000000000815260040160405180910390fd5b808260a001819052505050565b6000815103611210576040517ffe936cb700000000000000000000000000000000000000000000000000000000815260040160405180910390fd5b808260c001819052505050565b6060600061122c6101006122d6565b90506112766040518060400160405280600c81526020017f636f64654c6f636174696f6e0000000000000000000000000000000000000000815250826122fd90919063ffffffff16565b61129f836000015160028111156112905761128f613a1e565b5b8261232690919063ffffffff16565b6112e76040518060400160405280600881526020017f6c616e6775616765000000000000000000000000000000000000000000000000815250826122fd90919063ffffffff16565b6113108360400151600081111561130157611300613a1e565b5b8261232690919063ffffffff16565b6113586040518060400160405280600681526020017f736f757263650000000000000000000000000000000000000000000000000000815250826122fd90919063ffffffff16565b61136f8360600151826122fd90919063ffffffff16565b60008360a0015151111561142b576113c56040518060400160405280600481526020017f6172677300000000000000000000000000000000000000000000000000000000815250826122fd90919063ffffffff16565b6113ce81612376565b60005b8360a00151518110156114205761140f8460a0015182815181106113f8576113f761410e565b5b6020026020010151836122fd90919063ffffffff16565b8061141990613f2d565b90506113d1565b5061142a8161239e565b5b6000836080015151111561156c576000600281111561144d5761144c613a1e565b5b8360200151600281111561146457611463613a1e565b5b0361149b576040517fa80d31f700000000000000000000000000000000000000000000000000000000815260040160405180910390fd5b6114e36040518060400160405280600f81526020017f736563726574734c6f636174696f6e0000000000000000000000000000000000815250826122fd90919063ffffffff16565b61150c836020015160028111156114fd576114fc613a1e565b5b8261232690919063ffffffff16565b6115546040518060400160405280600781526020017f7365637265747300000000000000000000000000000000000000000000000000815250826122fd90919063ffffffff16565b61156b8360800151826123c690919063ffffffff16565b5b60008360c00151511115611628576115c26040518060400160405280600981526020017f6279746573417267730000000000000000000000000000000000000000000000815250826122fd90919063ffffffff16565b6115cb81612376565b60005b8360c001515181101561161d5761160c8460c0015182815181106115f5576115f461410e565b5b6020026020010151836123c690919063ffffffff16565b8061161690613f2d565b90506115ce565b506116278161239e565b5b806000015160000151915050919050565b6000807f000000000000000000000000000000000000000000000000000000000000000073ffffffffffffffffffffffffffffffffffffffff1663461d27628688600188886040518663ffffffff1660e01b815260040161169e959493929190614178565b6020604051808303816000875af11580156116bd573d6000803e3d6000fd5b505050506040513d601f19601f820116820180604052508101906116e191906141e7565b9050807f1131472297a800fee664d1d89cfa8f7676ff07189ecc53f80bbb5f4969099db860405160405180910390a280915050949350505050565b600080611728846120d4565b9050600073ffffffffffffffffffffffffffffffffffffffff168373ffffffffffffffffffffffffffffffffffffffff161461176a576117698184866123ef565b5b600073ffffffffffffffffffffffffffffffffffffffff168173ffffffffffffffffffffffffffffffffffffffff16146117fb576117ac600085600080612111565b6001600360008373ffffffffffffffffffffffffffffffffffffffff1673ffffffffffffffffffffffffffffffffffffffff168152602001908152602001600020600082825403925050819055505b600073ffffffffffffffffffffffffffffffffffffffff168573ffffffffffffffffffffffffffffffffffffffff161461187e576001600360008773ffffffffffffffffffffffffffffffffffffffff1673ffffffffffffffffffffffffffffffffffffffff168152602001908152602001600020600082825401925050819055505b846002600086815260200190815260200160002060006101000a81548173ffffffffffffffffffffffffffffffffffffffff021916908373ffffffffffffffffffffffffffffffffffffffff160217905550838573ffffffffffffffffffffffffffffffffffffffff168273ffffffffffffffffffffffffffffffffffffffff167fddf252ad1be2c89b69c2b068fc378daa952ba7f163c4a11628f55a4df523b3ef60405160405180910390a4809150509392505050565b600073ffffffffffffffffffffffffffffffffffffffff168273ffffffffffffffffffffffffffffffffffffffff16036119a757816040517f5b08ba1800000000000000000000000000000000000000000000000000000000815260040161199e919061302d565b60405180910390fd5b80600560008573ffffffffffffffffffffffffffffffffffffffff1673ffffffffffffffffffffffffffffffffffffffff16815260200190815260200160002060008473ffffffffffffffffffffffffffffffffffffffff1673ffffffffffffffffffffffffffffffffffffffff16815260200190815260200160002060006101000a81548160ff0219169083151502179055508173ffffffffffffffffffffffffffffffffffffffff168373ffffffffffffffffffffffffffffffffffffffff167f17307eab39ab6107e8899845ad3d59bd9653f200f220920489ca2b5937696c3183604051611a989190612ebc565b60405180910390a3505050565b60008373ffffffffffffffffffffffffffffffffffffffff163b1115611c56578273ffffffffffffffffffffffffffffffffffffffff1663150b7a02611ae9611012565b8685856040518563ffffffff1660e01b8152600401611b0b9493929190614214565b6020604051808303816000875af1925050508015611b4757506040513d601f19601f82011682018060405250810190611b449190614275565b60015b611bcb573d8060008114611b77576040519150601f19603f3d011682016040523d82523d6000602084013e611b7c565b606091505b506000815103611bc357836040517f64a0ae92000000000000000000000000000000000000000000000000000000008152600401611bba919061302d565b60405180910390fd5b805181602001fd5b63150b7a0260e01b7bffffffffffffffffffffffffffffffffffffffffffffffffffffffff1916817bffffffffffffffffffffffffffffffffffffffffffffffffffffffff191614611c5457836040517f64a0ae92000000000000000000000000000000000000000000000000000000008152600401611c4b919061302d565b60405180910390fd5b505b50505050565b6060611c6782610f4d565b506000600660008481526020019081526020016000208054611c88906139ed565b80601f0160208091040260200160405190810160405280929190818152602001828054611cb4906139ed565b8015611d015780601f10611cd657610100808354040283529160200191611d01565b820191906000526020600020905b815481529060010190602001808311611ce457829003601f168201915b505050505090506000611d126124b3565b90506000815103611d27578192505050611d6a565b600082511115611d5c578082604051602001611d449291906142de565b60405160208183030381529060405292505050611d6a565b611d6584612545565b925050505b919050565b600073ffffffffffffffffffffffffffffffffffffffff168273ffffffffffffffffffffffffffffffffffffffff1603611de15760006040517f64a0ae92000000000000000000000000000000000000000000000000000000008152600401611dd8919061302d565b60405180910390fd5b6000611def8383600061171c565b9050600073ffffffffffffffffffffffffffffffffffffffff168173ffffffffffffffffffffffffffffffffffffffff1614611e635760006040517f73c6ac6e000000000000000000000000000000000000000000000000000000008152600401611e5a919061302d565b60405180910390fd5b505050565b80600660008481526020019081526020016000209081611e889190613dc0565b507ff8e1a15aba9398e019f0b49df1a4fde98ee17ae345cb5f6b5e2c27f5033e8ce782604051611eb89190613633565b60405180910390a15050565b3373ffffffffffffffffffffffffffffffffffffffff168173ffffffffffffffffffffffffffffffffffffffff1603611f32576040517f08c379a0000000000000000000000000000000000000000000000000000000008152600401611f299061434e565b60405180910390fd5b80600860006101000a81548173ffffffffffffffffffffffffffffffffffffffff021916908373ffffffffffffffffffffffffffffffffffffffff1602179055508073ffffffffffffffffffffffffffffffffffffffff16600760009054906101000a900473ffffffffffffffffffffffffffffffffffffffff1673ffffffffffffffffffffffffffffffffffffffff167fed8889f560326eb138920d842192f0eb3dd22b4f139c87a2c57538e05bae127860405160405180910390a350565b60007f80ac58cd000000000000000000000000000000000000000000000000000000007bffffffffffffffffffffffffffffffffffffffffffffffffffffffff1916827bffffffffffffffffffffffffffffffffffffffffffffffffffffffff191614806120bd57507f5b5e139f000000000000000000000000000000000000000000000000000000007bffffffffffffffffffffffffffffffffffffffffffffffffffffffff1916827bffffffffffffffffffffffffffffffffffffffffffffffffffffffff1916145b806120cd57506120cc826125ae565b5b9050919050565b60006002600083815260200190815260200160002060009054906101000a900473ffffffffffffffffffffffffffffffffffffffff169050919050565b808061214a5750600073ffffffffffffffffffffffffffffffffffffffff168273ffffffffffffffffffffffffffffffffffffffff1614155b1561227e57600061215a84610f4d565b9050600073ffffffffffffffffffffffffffffffffffffffff168373ffffffffffffffffffffffffffffffffffffffff16141580156121c557508273ffffffffffffffffffffffffffffffffffffffff168173ffffffffffffffffffffffffffffffffffffffff1614155b80156121d857506121d68184610e44565b155b1561221a57826040517fa9fbf51f000000000000000000000000000000000000000000000000000000008152600401612211919061302d565b60405180910390fd5b811561227c57838573ffffffffffffffffffffffffffffffffffffffff168273ffffffffffffffffffffffffffffffffffffffff167f8c5be1e5ebec7d5bd14f71427d1e84f3dd0314c0f7b2291e5b200ac8c7c3b92560405160405180910390a45b505b836004600085815260200190815260200160002060006101000a81548173ffffffffffffffffffffffffffffffffffffffff021916908373ffffffffffffffffffffffffffffffffffffffff16021790555050505050565b6122de612dce565b6122ec816000015183612618565b506000816020018181525050919050565b61230a8260038351612691565b61232181836000015161283a90919063ffffffff16565b505050565b61234860026005600660ff16901b17836000015161285690919063ffffffff16565b50612372828260405160200161235e9190613633565b6040516020818303038152906040526123c6565b5050565b6123818160046128c0565b600181602001818151612394919061436e565b9150818152505050565b6123a98160076128c0565b6001816020018181516123bc91906143a2565b9150818152505050565b6123d38260028351612691565b6123ea81836000015161283a90919063ffffffff16565b505050565b6123fa8383836128e6565b6124ae57600073ffffffffffffffffffffffffffffffffffffffff168373ffffffffffffffffffffffffffffffffffffffff160361246f57806040517f7e2732890000000000000000000000000000000000000000000000000000000081526004016124669190613633565b60405180910390fd5b81816040517f177e802f0000000000000000000000000000000000000000000000000000000081526004016124a59291906143d6565b60405180910390fd5b505050565b6060600e80546124c2906139ed565b80601f01602080910402602001604051908101604052809291908181526020018280546124ee906139ed565b801561253b5780601f106125105761010080835404028352916020019161253b565b820191906000526020600020905b81548152906001019060200180831161251e57829003601f168201915b5050505050905090565b606061255082610f4d565b50600061255b6124b3565b9050600081511161257b57604051806020016040528060008152506125a6565b80612585846129a7565b6040516020016125969291906142de565b6040516020818303038152906040525b915050919050565b60007f01ffc9a7000000000000000000000000000000000000000000000000000000007bffffffffffffffffffffffffffffffffffffffffffffffffffffffff1916827bffffffffffffffffffffffffffffffffffffffffffffffffffffffff1916149050919050565b612620612dee565b600060208361262f919061442e565b1461265b57602082612641919061442e565b602061264d91906143a2565b82612658919061436e565b91505b81836020018181525050604051808452600081528281016020018181101561268257600080fd5b80604052505082905092915050565b60178167ffffffffffffffff16116126cc576126c68160058460ff16901b60ff1617846000015161285690919063ffffffff16565b50612835565b60ff8167ffffffffffffffff161161272a576126ff601860058460ff16901b17846000015161285690919063ffffffff16565b506127248167ffffffffffffffff1660018560000151612a759092919063ffffffff16565b50612834565b61ffff8167ffffffffffffffff16116127895761275e601960058460ff16901b17846000015161285690919063ffffffff16565b506127838167ffffffffffffffff1660028560000151612a759092919063ffffffff16565b50612833565b63ffffffff8167ffffffffffffffff16116127ea576127bf601a60058460ff16901b17846000015161285690919063ffffffff16565b506127e48167ffffffffffffffff1660048560000151612a759092919063ffffffff16565b50612832565b61280b601b60058460ff16901b17846000015161285690919063ffffffff16565b506128308167ffffffffffffffff1660088560000151612a759092919063ffffffff16565b505b5b5b5b505050565b612842612dee565b61284e83838451612b02565b905092915050565b61285e612dee565b600083600001515190506000600182612877919061436e565b90508460200151821061289b5761289a85600283612895919061445f565b612be5565b5b845160208382010185815381518311156128b3578282525b5050849250505092915050565b6128e1601f60058360ff16901b17836000015161285690919063ffffffff16565b505050565b60008073ffffffffffffffffffffffffffffffffffffffff168373ffffffffffffffffffffffffffffffffffffffff161415801561299e57508273ffffffffffffffffffffffffffffffffffffffff168473ffffffffffffffffffffffffffffffffffffffff16148061295f575061295e8484610e44565b5b8061299d57508273ffffffffffffffffffffffffffffffffffffffff1661298583610fd5565b73ffffffffffffffffffffffffffffffffffffffff16145b5b90509392505050565b6060600060016129b684612c09565b01905060008167ffffffffffffffff8111156129d5576129d46130f4565b5b6040519080825280601f01601f191660200182016040528015612a075781602001600182028036833780820191505090505b509050600082602001820190505b600115612a6a578080600190039150507f3031323334353637383961626364656600000000000000000000000000000000600a86061a8153600a8581612a5e57612a5d6143ff565b5b04945060008503612a15575b819350505050919050565b612a7d612dee565b6000846000015151905060008184612a95919061436e565b90508560200151811115612aba57612ab986600283612ab4919061445f565b612be5565b5b6000600185610100612acc91906145d4565b612ad691906143a2565b905086518281018783198251161781528151841115612af3578382525b50508693505050509392505050565b612b0a612dee565b8251821115612b1857600080fd5b6000846000015151905060008382612b30919061436e565b90508560200151811115612b5557612b5486600283612b4f919061445f565b612be5565b5b60008087518051856020830101935080851115612b70578482525b60208901925050505b60208610612bb75780518252602082612b92919061436e565b9150602081612ba1919061436e565b9050602086612bb091906143a2565b9550612b79565b60006001876020036101000a0390508019825116818451168181178552505050879450505050509392505050565b600082600001519050612bf88383612618565b50612c03838261283a565b50505050565b600080600090507a184f03e93ff9f4daa797ed6e38ed64bf6a1f0100000000000000008310612c67577a184f03e93ff9f4daa797ed6e38ed64bf6a1f0100000000000000008381612c5d57612c5c6143ff565b5b0492506040810190505b6d04ee2d6d415b85acef81000000008310612ca4576d04ee2d6d415b85acef81000000008381612c9a57612c996143ff565b5b0492506020810190505b662386f26fc100008310612cd357662386f26fc100008381612cc957612cc86143ff565b5b0492506010810190505b6305f5e1008310612cfc576305f5e1008381612cf257612cf16143ff565b5b0492506008810190505b6127108310612d21576127108381612d1757612d166143ff565b5b0492506004810190505b60648310612d445760648381612d3a57612d396143ff565b5b0492506002810190505b600a8310612d53576001810190505b80915050919050565b6040518060e0016040528060006002811115612d7b57612d7a613a1e565b5b815260200160006002811115612d9457612d93613a1e565b5b8152602001600080811115612dac57612dab613a1e565b5b8152602001606081526020016060815260200160608152602001606081525090565b6040518060400160405280612de1612dee565b8152602001600081525090565b604051806040016040528060608152602001600081525090565b6000604051905090565b600080fd5b600080fd5b60007fffffffff0000000000000000000000000000000000000000000000000000000082169050919050565b612e5181612e1c565b8114612e5c57600080fd5b50565b600081359050612e6e81612e48565b92915050565b600060208284031215612e8a57612e89612e12565b5b6000612e9884828501612e5f565b91505092915050565b60008115159050919050565b612eb681612ea1565b82525050565b6000602082019050612ed16000830184612ead565b92915050565b600081519050919050565b600082825260208201905092915050565b60005b83811015612f11578082015181840152602081019050612ef6565b60008484015250505050565b6000601f19601f8301169050919050565b6000612f3982612ed7565b612f438185612ee2565b9350612f53818560208601612ef3565b612f5c81612f1d565b840191505092915050565b60006020820190508181036000830152612f818184612f2e565b905092915050565b6000819050919050565b612f9c81612f89565b8114612fa757600080fd5b50565b600081359050612fb981612f93565b92915050565b600060208284031215612fd557612fd4612e12565b5b6000612fe384828501612faa565b91505092915050565b600073ffffffffffffffffffffffffffffffffffffffff82169050919050565b600061301782612fec565b9050919050565b6130278161300c565b82525050565b6000602082019050613042600083018461301e565b92915050565b6130518161300c565b811461305c57600080fd5b50565b60008135905061306e81613048565b92915050565b6000806040838503121561308b5761308a612e12565b5b60006130998582860161305f565b92505060206130aa85828601612faa565b9150509250929050565b6000819050919050565b6130c7816130b4565b81146130d257600080fd5b50565b6000813590506130e4816130be565b92915050565b600080fd5b600080fd5b7f4e487b7100000000000000000000000000000000000000000000000000000000600052604160045260246000fd5b61312c82612f1d565b810181811067ffffffffffffffff8211171561314b5761314a6130f4565b5b80604052505050565b600061315e612e08565b905061316a8282613123565b919050565b600067ffffffffffffffff82111561318a576131896130f4565b5b61319382612f1d565b9050602081019050919050565b82818337600083830152505050565b60006131c26131bd8461316f565b613154565b9050828152602081018484840111156131de576131dd6130ef565b5b6131e98482856131a0565b509392505050565b600082601f830112613206576132056130ea565b5b81356132168482602086016131af565b91505092915050565b60008060006060848603121561323857613237612e12565b5b6000613246868287016130d5565b935050602084013567ffffffffffffffff81111561326757613266612e17565b5b613273868287016131f1565b925050604084013567ffffffffffffffff81111561329457613293612e17565b5b6132a0868287016131f1565b9150509250925092565b600080fd5b600080fd5b60008083601f8401126132ca576132c96130ea565b5b8235905067ffffffffffffffff8111156132e7576132e66132aa565b5b602083019150836001820283011115613303576133026132af565b5b9250929050565b6003811061331757600080fd5b50565b6000813590506133298161330a565b92915050565b60008083601f840112613345576133446130ea565b5b8235905067ffffffffffffffff811115613362576133616132aa565b5b60208301915083600182028301111561337e5761337d6132af565b5b9250929050565b60008083601f84011261339b5761339a6130ea565b5b8235905067ffffffffffffffff8111156133b8576133b76132aa565b5b6020830191508360208202830111156133d4576133d36132af565b5b9250929050565b60008083601f8401126133f1576133f06130ea565b5b8235905067ffffffffffffffff81111561340e5761340d6132aa565b5b60208301915083602082028301111561342a576134296132af565b5b9250929050565b600067ffffffffffffffff82169050919050565b61344e81613431565b811461345957600080fd5b50565b60008135905061346b81613445565b92915050565b600063ffffffff82169050919050565b61348a81613471565b811461349557600080fd5b50565b6000813590506134a781613481565b92915050565b600080600080600080600080600080600060e08c8e0312156134d2576134d1612e12565b5b60008c013567ffffffffffffffff8111156134f0576134ef612e17565b5b6134fc8e828f016132b4565b9b509b5050602061350f8e828f0161331a565b99505060408c013567ffffffffffffffff8111156135305761352f612e17565b5b61353c8e828f0161332f565b985098505060608c013567ffffffffffffffff81111561355f5761355e612e17565b5b61356b8e828f01613385565b965096505060808c013567ffffffffffffffff81111561358e5761358d612e17565b5b61359a8e828f016133db565b945094505060a06135ad8e828f0161345c565b92505060c06135be8e828f01613498565b9150509295989b509295989b9093969950565b6000806000606084860312156135ea576135e9612e12565b5b60006135f88682870161305f565b93505060206136098682870161305f565b925050604061361a86828701612faa565b9150509250925092565b61362d81612f89565b82525050565b60006020820190506136486000830184613624565b92915050565b600081519050919050565b600082825260208201905092915050565b60006136758261364e565b61367f8185613659565b935061368f818560208601612ef3565b61369881612f1d565b840191505092915050565b600060208201905081810360008301526136bd818461366a565b905092915050565b600067ffffffffffffffff8211156136e0576136df6130f4565b5b6136e982612f1d565b9050602081019050919050565b6000613709613704846136c5565b613154565b905082815260208101848484011115613725576137246130ef565b5b6137308482856131a0565b509392505050565b600082601f83011261374d5761374c6130ea565b5b813561375d8482602086016136f6565b91505092915050565b60006020828403121561377c5761377b612e12565b5b600082013567ffffffffffffffff81111561379a57613799612e17565b5b6137a684828501613738565b91505092915050565b6000602082840312156137c5576137c4612e12565b5b60006137d38482850161305f565b91505092915050565b6000602082840312156137f2576137f1612e12565b5b6000613800848285016130d5565b91505092915050565b613812816130b4565b82525050565b600060208201905061382d6000830184613809565b92915050565b61383c81612ea1565b811461384757600080fd5b50565b60008135905061385981613833565b92915050565b6000806040838503121561387657613875612e12565b5b60006138848582860161305f565b92505060206138958582860161384a565b9150509250929050565b600080600080608085870312156138b9576138b8612e12565b5b60006138c78782880161305f565b94505060206138d88782880161305f565b93505060406138e987828801612faa565b925050606085013567ffffffffffffffff81111561390a57613909612e17565b5b613916878288016131f1565b91505092959194509250565b6000806040838503121561393957613938612e12565b5b60006139478582860161305f565b925050602083013567ffffffffffffffff81111561396857613967612e17565b5b61397485828601613738565b9150509250929050565b6000806040838503121561399557613994612e12565b5b60006139a38582860161305f565b92505060206139b48582860161305f565b9150509250929050565b7f4e487b7100000000000000000000000000000000000000000000000000000000600052602260045260246000fd5b60006002820490506001821680613a0557607f821691505b602082108103613a1857613a176139be565b5b50919050565b7f4e487b7100000000000000000000000000000000000000000000000000000000600052602160045260246000fd5b600067ffffffffffffffff821115613a6857613a676130f4565b5b602082029050602081019050919050565b6000613a8c613a8784613a4d565b613154565b90508083825260208201905060208402830185811115613aaf57613aae6132af565b5b835b81811015613af657803567ffffffffffffffff811115613ad457613ad36130ea565b5b808601613ae18982613738565b85526020850194505050602081019050613ab1565b5050509392505050565b6000613b0d368484613a79565b905092915050565b600067ffffffffffffffff821115613b3057613b2f6130f4565b5b602082029050602081019050919050565b6000613b54613b4f84613b15565b613154565b90508083825260208201905060208402830185811115613b7757613b766132af565b5b835b81811015613bbe57803567ffffffffffffffff811115613b9c57613b9b6130ea565b5b808601613ba989826131f1565b85526020850194505050602081019050613b79565b5050509392505050565b6000613bd5368484613b41565b905092915050565b6000606082019050613bf2600083018661301e565b613bff6020830185613624565b613c0c604083018461301e565b949350505050565b60008190508160005260206000209050919050565b60006020601f8301049050919050565b600082821b905092915050565b600060088302613c767fffffffffffffffffffffffffffffffffffffffffffffffffffffffffffffffff82613c39565b613c808683613c39565b95508019841693508086168417925050509392505050565b6000819050919050565b6000613cbd613cb8613cb384612f89565b613c98565b612f89565b9050919050565b6000819050919050565b613cd783613ca2565b613ceb613ce382613cc4565b848454613c46565b825550505050565b600090565b613d00613cf3565b613d0b818484613cce565b505050565b5b81811015613d2f57613d24600082613cf8565b600181019050613d11565b5050565b601f821115613d7457613d4581613c14565b613d4e84613c29565b81016020851015613d5d578190505b613d71613d6985613c29565b830182613d10565b50505b505050565b600082821c905092915050565b6000613d9760001984600802613d79565b1980831691505092915050565b6000613db08383613d86565b9150826002028217905092915050565b613dc982612ed7565b67ffffffffffffffff811115613de257613de16130f4565b5b613dec82546139ed565b613df7828285613d33565b600060209050601f831160018114613e2a5760008415613e18578287015190505b613e228582613da4565b865550613e8a565b601f198416613e3886613c14565b60005b82811015613e6057848901518255600182019150602085019450602081019050613e3b565b86831015613e7d5784890151613e79601f891682613d86565b8355505b6001600288020188555050505b505050505050565b7f4d7573742062652070726f706f736564206f776e657200000000000000000000600082015250565b6000613ec8601683612ee2565b9150613ed382613e92565b602082019050919050565b60006020820190508181036000830152613ef781613ebb565b9050919050565b7f4e487b7100000000000000000000000000000000000000000000000000000000600052601160045260246000fd5b6000613f3882612f89565b91507fffffffffffffffffffffffffffffffffffffffffffffffffffffffffffffffff8203613f6a57613f69613efe565b5b600182019050919050565b60008190508160005260206000209050919050565b601f821115613fcb57613f9c81613f75565b613fa584613c29565b81016020851015613fb4578190505b613fc8613fc085613c29565b830182613d10565b50505b505050565b613fd98261364e565b67ffffffffffffffff811115613ff257613ff16130f4565b5b613ffc82546139ed565b614007828285613f8a565b600060209050601f83116001811461403a5760008415614028578287015190505b6140328582613da4565b86555061409a565b601f19841661404886613f75565b60005b828110156140705784890151825560018201915060208501945060208101905061404b565b8683101561408d5784890151614089601f891682613d86565b8355505b6001600288020188555050505b505050505050565b7f4f6e6c792063616c6c61626c65206279206f776e657200000000000000000000600082015250565b60006140d8601683612ee2565b91506140e3826140a2565b602082019050919050565b60006020820190508181036000830152614107816140cb565b9050919050565b7f4e487b7100000000000000000000000000000000000000000000000000000000600052603260045260246000fd5b61414681613431565b82525050565b600061ffff82169050919050565b6141638161414c565b82525050565b61417281613471565b82525050565b600060a08201905061418d600083018861413d565b818103602083015261419f818761366a565b90506141ae604083018661415a565b6141bb6060830185614169565b6141c86080830184613809565b9695505050505050565b6000815190506141e1816130be565b92915050565b6000602082840312156141fd576141fc612e12565b5b600061420b848285016141d2565b91505092915050565b6000608082019050614229600083018761301e565b614236602083018661301e565b6142436040830185613624565b8181036060830152614255818461366a565b905095945050505050565b60008151905061426f81612e48565b92915050565b60006020828403121561428b5761428a612e12565b5b600061429984828501614260565b91505092915050565b600081905092915050565b60006142b882612ed7565b6142c281856142a2565b93506142d2818560208601612ef3565b80840191505092915050565b60006142ea82856142ad565b91506142f682846142ad565b91508190509392505050565b7f43616e6e6f74207472616e7366657220746f2073656c66000000000000000000600082015250565b6000614338601783612ee2565b915061434382614302565b602082019050919050565b600060208201905081810360008301526143678161432b565b9050919050565b600061437982612f89565b915061438483612f89565b925082820190508082111561439c5761439b613efe565b5b92915050565b60006143ad82612f89565b91506143b883612f89565b92508282039050818111156143d0576143cf613efe565b5b92915050565b60006040820190506143eb600083018561301e565b6143f86020830184613624565b9392505050565b7f4e487b7100000000000000000000000000000000000000000000000000000000600052601260045260246000fd5b600061443982612f89565b915061444483612f89565b925082614454576144536143ff565b5b828206905092915050565b600061446a82612f89565b915061447583612f89565b925082820261448381612f89565b9150828204841483151761449a57614499613efe565b5b5092915050565b60008160011c9050919050565b6000808291508390505b60018511156144f8578086048111156144d4576144d3613efe565b5b60018516156144e35780820291505b80810290506144f1856144a1565b94506144b8565b94509492505050565b60008261451157600190506145cd565b8161451f57600090506145cd565b8160018114614535576002811461453f5761456e565b60019150506145cd565b60ff84111561455157614550613efe565b5b8360020a91508482111561456857614567613efe565b5b506145cd565b5060208310610133831016604e8410600b84101617156145a35782820a90508381111561459e5761459d613efe565b5b6145cd565b6145b084848460016144ae565b925090508184048111156145c7576145c6613efe565b5b81810290505b9392505050565b60006145df82612f89565b91506145ea83612f89565b92506146177fffffffffffffffffffffffffffffffffffffffffffffffffffffffffffffffff8484614501565b90509291505056fea26469706673582212201fddeed9db76b30b98529e735ba1174e52c7905b114ace6ff3c4b34f3214f3ae64736f6c63430008140033",
  "linkReferences": {},
  "deployedLinkReferences": {}
}