{
  "_format": "hh-sol-artifact-1",
  "contractName": "GiftNFT",
  "sourceName": "contracts/GiftNFT.sol",
  "abi": [
    {
      "inputs": [
        {
          "internalType": "address",
          "name": "router",
          "type": "address"
        },
        {
          "internalType": "bytes32",
          "name": "_donId",
          "type": "bytes32"
        },
        {
          "internalType": "string",
          "name": "baseURI",
          "type": "string"
        },
        {
          "internalType": "uint256",
          "name": "updateInterval",
          "type": "uint256"
        },
        {
          "internalType": "address",
          "name": "_recipient",
          "type": "address"
        }
      ],
      "stateMutability": "nonpayable",
      "type": "constructor"
    },
    {
      "inputs": [
        {
          "internalType": "address",
          "name": "sender",
          "type": "address"
        },
        {
          "internalType": "uint256",
          "name": "tokenId",
          "type": "uint256"
        },
        {
          "internalType": "address",
          "name": "owner",
          "type": "address"
        }
      ],
      "name": "ERC721IncorrectOwner",
      "type": "error"
    },
    {
      "inputs": [
        {
          "internalType": "address",
          "name": "operator",
          "type": "address"
        },
        {
          "internalType": "uint256",
          "name": "tokenId",
          "type": "uint256"
        }
      ],
      "name": "ERC721InsufficientApproval",
      "type": "error"
    },
    {
      "inputs": [
        {
          "internalType": "address",
          "name": "approver",
          "type": "address"
        }
      ],
      "name": "ERC721InvalidApprover",
      "type": "error"
    },
    {
      "inputs": [
        {
          "internalType": "address",
          "name": "operator",
          "type": "address"
        }
      ],
      "name": "ERC721InvalidOperator",
      "type": "error"
    },
    {
      "inputs": [
        {
          "internalType": "address",
          "name": "owner",
          "type": "address"
        }
      ],
      "name": "ERC721InvalidOwner",
      "type": "error"
    },
    {
      "inputs": [
        {
          "internalType": "address",
          "name": "receiver",
          "type": "address"
        }
      ],
      "name": "ERC721InvalidReceiver",
      "type": "error"
    },
    {
      "inputs": [
        {
          "internalType": "address",
          "name": "sender",
          "type": "address"
        }
      ],
      "name": "ERC721InvalidSender",
      "type": "error"
    },
    {
      "inputs": [
        {
          "internalType": "uint256",
          "name": "tokenId",
          "type": "uint256"
        }
      ],
      "name": "ERC721NonexistentToken",
      "type": "error"
    },
    {
      "inputs": [],
      "name": "EmptyArgs",
      "type": "error"
    },
    {
      "inputs": [],
      "name": "EmptySource",
      "type": "error"
    },
    {
      "inputs": [],
      "name": "NoInlineSecrets",
      "type": "error"
    },
    {
      "inputs": [],
      "name": "OnlyRouterCanFulfill",
      "type": "error"
    },
    {
      "anonymous": false,
      "inputs": [
        {
          "indexed": true,
          "internalType": "address",
          "name": "owner",
          "type": "address"
        },
        {
          "indexed": true,
          "internalType": "address",
          "name": "approved",
          "type": "address"
        },
        {
          "indexed": true,
          "internalType": "uint256",
          "name": "tokenId",
          "type": "uint256"
        }
      ],
      "name": "Approval",
      "type": "event"
    },
    {
      "anonymous": false,
      "inputs": [
        {
          "indexed": true,
          "internalType": "address",
          "name": "owner",
          "type": "address"
        },
        {
          "indexed": true,
          "internalType": "address",
          "name": "operator",
          "type": "address"
        },
        {
          "indexed": false,
          "internalType": "bool",
          "name": "approved",
          "type": "bool"
        }
      ],
      "name": "ApprovalForAll",
      "type": "event"
    },
    {
      "anonymous": false,
      "inputs": [
        {
          "indexed": false,
          "internalType": "uint256",
          "name": "_fromTokenId",
          "type": "uint256"
        },
        {
          "indexed": false,
          "internalType": "uint256",
          "name": "_toTokenId",
          "type": "uint256"
        }
      ],
      "name": "BatchMetadataUpdate",
      "type": "event"
    },
    {
      "anonymous": false,
      "inputs": [
        {
          "indexed": false,
          "internalType": "uint256",
          "name": "_tokenId",
          "type": "uint256"
        }
      ],
      "name": "MetadataUpdate",
      "type": "event"
    },
    {
      "anonymous": false,
      "inputs": [
        {
          "indexed": true,
          "internalType": "address",
          "name": "from",
          "type": "address"
        },
        {
          "indexed": true,
          "internalType": "address",
          "name": "to",
          "type": "address"
        }
      ],
      "name": "OwnershipTransferRequested",
      "type": "event"
    },
    {
      "anonymous": false,
      "inputs": [
        {
          "indexed": true,
          "internalType": "address",
          "name": "from",
          "type": "address"
        },
        {
          "indexed": true,
          "internalType": "address",
          "name": "to",
          "type": "address"
        }
      ],
      "name": "OwnershipTransferred",
      "type": "event"
    },
    {
      "anonymous": false,
      "inputs": [
        {
          "indexed": true,
          "internalType": "bytes32",
          "name": "id",
          "type": "bytes32"
        }
      ],
      "name": "RequestFulfilled",
      "type": "event"
    },
    {
      "anonymous": false,
      "inputs": [
        {
          "indexed": true,
          "internalType": "bytes32",
          "name": "id",
          "type": "bytes32"
        }
      ],
      "name": "RequestSent",
      "type": "event"
    },
    {
      "anonymous": false,
      "inputs": [
        {
          "indexed": true,
          "internalType": "address",
          "name": "from",
          "type": "address"
        },
        {
          "indexed": true,
          "internalType": "address",
          "name": "to",
          "type": "address"
        },
        {
          "indexed": true,
          "internalType": "uint256",
          "name": "tokenId",
          "type": "uint256"
        }
      ],
      "name": "Transfer",
      "type": "event"
    },
    {
      "inputs": [],
      "name": "_tokenId",
      "outputs": [
        {
          "internalType": "uint256",
          "name": "",
          "type": "uint256"
        }
      ],
      "stateMutability": "view",
      "type": "function"
    },
    {
      "inputs": [],
      "name": "acceptOwnership",
      "outputs": [],
      "stateMutability": "nonpayable",
      "type": "function"
    },
    {
      "inputs": [
        {
          "internalType": "address",
          "name": "to",
          "type": "address"
        },
        {
          "internalType": "uint256",
          "name": "tokenId",
          "type": "uint256"
        }
      ],
      "name": "approve",
      "outputs": [],
      "stateMutability": "nonpayable",
      "type": "function"
    },
    {
      "inputs": [
        {
          "internalType": "address",
          "name": "owner",
          "type": "address"
        }
      ],
      "name": "balanceOf",
      "outputs": [
        {
          "internalType": "uint256",
          "name": "",
          "type": "uint256"
        }
      ],
      "stateMutability": "view",
      "type": "function"
    },
    {
      "inputs": [
        {
          "internalType": "bytes",
          "name": "",
          "type": "bytes"
        }
      ],
      "name": "checkUpkeep",
      "outputs": [
        {
          "internalType": "bool",
          "name": "upkeepNeeded",
          "type": "bool"
        },
        {
          "internalType": "bytes",
          "name": "",
          "type": "bytes"
        }
      ],
      "stateMutability": "view",
      "type": "function"
    },
    {
      "inputs": [],
      "name": "donId",
      "outputs": [
        {
          "internalType": "bytes32",
          "name": "",
          "type": "bytes32"
        }
      ],
      "stateMutability": "view",
      "type": "function"
    },
    {
      "inputs": [
        {
          "internalType": "uint256",
          "name": "tokenId",
          "type": "uint256"
        }
      ],
      "name": "getApproved",
      "outputs": [
        {
          "internalType": "address",
          "name": "",
          "type": "address"
        }
      ],
      "stateMutability": "view",
      "type": "function"
    },
    {
      "inputs": [
        {
          "internalType": "bytes32",
          "name": "requestId",
          "type": "bytes32"
        },
        {
          "internalType": "bytes",
          "name": "response",
          "type": "bytes"
        },
        {
          "internalType": "bytes",
          "name": "err",
          "type": "bytes"
        }
      ],
      "name": "handleOracleFulfillment",
      "outputs": [],
      "stateMutability": "nonpayable",
      "type": "function"
    },
    {
      "inputs": [],
      "name": "interval",
      "outputs": [
        {
          "internalType": "uint256",
          "name": "",
          "type": "uint256"
        }
      ],
      "stateMutability": "view",
      "type": "function"
    },
    {
      "inputs": [
        {
          "internalType": "address",
          "name": "owner",
          "type": "address"
        },
        {
          "internalType": "address",
          "name": "operator",
          "type": "address"
        }
      ],
      "name": "isApprovedForAll",
      "outputs": [
        {
          "internalType": "bool",
          "name": "",
          "type": "bool"
        }
      ],
      "stateMutability": "view",
      "type": "function"
    },
    {
      "inputs": [],
      "name": "lastTimeStamp",
      "outputs": [
        {
          "internalType": "uint256",
          "name": "",
          "type": "uint256"
        }
      ],
      "stateMutability": "view",
      "type": "function"
    },
    {
      "inputs": [
        {
          "internalType": "address",
          "name": "to",
          "type": "address"
        },
        {
          "internalType": "string",
          "name": "uri",
          "type": "string"
        }
      ],
      "name": "mint",
      "outputs": [],
      "stateMutability": "nonpayable",
      "type": "function"
    },
    {
      "inputs": [],
      "name": "name",
      "outputs": [
        {
          "internalType": "string",
          "name": "",
          "type": "string"
        }
      ],
      "stateMutability": "view",
      "type": "function"
    },
    {
      "inputs": [],
      "name": "nextId",
      "outputs": [
        {
          "internalType": "uint256",
          "name": "",
          "type": "uint256"
        }
      ],
      "stateMutability": "view",
      "type": "function"
    },
    {
      "inputs": [],
      "name": "owner",
      "outputs": [
        {
          "internalType": "address",
          "name": "",
          "type": "address"
        }
      ],
      "stateMutability": "view",
      "type": "function"
    },
    {
      "inputs": [
        {
          "internalType": "uint256",
          "name": "tokenId",
          "type": "uint256"
        }
      ],
      "name": "ownerOf",
      "outputs": [
        {
          "internalType": "address",
          "name": "",
          "type": "address"
        }
      ],
      "stateMutability": "view",
      "type": "function"
    },
    {
      "inputs": [
        {
          "internalType": "bytes",
          "name": "",
          "type": "bytes"
        }
      ],
      "name": "performUpkeep",
      "outputs": [],
      "stateMutability": "nonpayable",
      "type": "function"
    },
    {
      "inputs": [],
      "name": "recipient",
      "outputs": [
        {
          "internalType": "address",
          "name": "",
          "type": "address"
        }
      ],
      "stateMutability": "view",
      "type": "function"
    },
    {
      "inputs": [],
      "name": "s_lastError",
      "outputs": [
        {
          "internalType": "bytes",
          "name": "",
          "type": "bytes"
        }
      ],
      "stateMutability": "view",
      "type": "function"
    },
    {
      "inputs": [],
      "name": "s_lastRequestId",
      "outputs": [
        {
          "internalType": "bytes32",
          "name": "",
          "type": "bytes32"
        }
      ],
      "stateMutability": "view",
      "type": "function"
    },
    {
      "inputs": [],
      "name": "s_lastResponse",
      "outputs": [
        {
          "internalType": "bytes",
          "name": "",
          "type": "bytes"
        }
      ],
      "stateMutability": "view",
      "type": "function"
    },
    {
      "inputs": [
        {
          "internalType": "address",
          "name": "from",
          "type": "address"
        },
        {
          "internalType": "address",
          "name": "to",
          "type": "address"
        },
        {
          "internalType": "uint256",
          "name": "tokenId",
          "type": "uint256"
        }
      ],
      "name": "safeTransferFrom",
      "outputs": [],
      "stateMutability": "nonpayable",
      "type": "function"
    },
    {
      "inputs": [
        {
          "internalType": "address",
          "name": "from",
          "type": "address"
        },
        {
          "internalType": "address",
          "name": "to",
          "type": "address"
        },
        {
          "internalType": "uint256",
          "name": "tokenId",
          "type": "uint256"
        },
        {
          "internalType": "bytes",
          "name": "data",
          "type": "bytes"
        }
      ],
      "name": "safeTransferFrom",
      "outputs": [],
      "stateMutability": "nonpayable",
      "type": "function"
    },
    {
      "inputs": [
        {
          "internalType": "string",
          "name": "source",
          "type": "string"
        },
        {
          "internalType": "enum FunctionsRequest.Location",
          "name": "secretsLocation",
          "type": "uint8"
        },
        {
          "internalType": "bytes",
          "name": "encryptedSecretsReference",
          "type": "bytes"
        },
        {
          "internalType": "string[]",
          "name": "args",
          "type": "string[]"
        },
        {
          "internalType": "bytes[]",
          "name": "bytesArgs",
          "type": "bytes[]"
        },
        {
          "internalType": "uint64",
          "name": "subscriptionId",
          "type": "uint64"
        },
        {
          "internalType": "uint32",
          "name": "callbackGasLimit",
          "type": "uint32"
        }
      ],
      "name": "sendRequest",
      "outputs": [],
      "stateMutability": "nonpayable",
      "type": "function"
    },
    {
      "inputs": [
        {
          "internalType": "address",
          "name": "operator",
          "type": "address"
        },
        {
          "internalType": "bool",
          "name": "approved",
          "type": "bool"
        }
      ],
      "name": "setApprovalForAll",
      "outputs": [],
      "stateMutability": "nonpayable",
      "type": "function"
    },
    {
      "inputs": [
        {
          "internalType": "string",
          "name": "baseURI",
          "type": "string"
        }
      ],
      "name": "setBaseURI",
      "outputs": [],
      "stateMutability": "nonpayable",
      "type": "function"
    },
    {
      "inputs": [
        {
          "internalType": "bytes32",
          "name": "newDonId",
          "type": "bytes32"
        }
      ],
      "name": "setDonId",
      "outputs": [],
      "stateMutability": "nonpayable",
      "type": "function"
    },
    {
      "inputs": [
        {
          "internalType": "bytes4",
          "name": "interfaceId",
          "type": "bytes4"
        }
      ],
      "name": "supportsInterface",
      "outputs": [
        {
          "internalType": "bool",
          "name": "",
          "type": "bool"
        }
      ],
      "stateMutability": "view",
      "type": "function"
    },
    {
      "inputs": [],
      "name": "symbol",
      "outputs": [
        {
          "internalType": "string",
          "name": "",
          "type": "string"
        }
      ],
      "stateMutability": "view",
      "type": "function"
    },
    {
      "inputs": [
        {
          "internalType": "uint256",
          "name": "tokenId",
          "type": "uint256"
        }
      ],
      "name": "tokenURI",
      "outputs": [
        {
          "internalType": "string",
          "name": "",
          "type": "string"
        }
      ],
      "stateMutability": "view",
      "type": "function"
    },
    {
      "inputs": [
        {
          "internalType": "address",
          "name": "from",
          "type": "address"
        },
        {
          "internalType": "address",
          "name": "to",
          "type": "address"
        },
        {
          "internalType": "uint256",
          "name": "tokenId",
          "type": "uint256"
        }
      ],
      "name": "transferFrom",
      "outputs": [],
      "stateMutability": "nonpayable",
      "type": "function"
    },
    {
      "inputs": [
        {
          "internalType": "address",
          "name": "to",
          "type": "address"
        }
      ],
      "name": "transferOwnership",
      "outputs": [],
      "stateMutability": "nonpayable",
      "type": "function"
    }
  ],
  "bytecode": "0x60c06040523480156200001157600080fd5b50604051620053cf380380620053cf833981810160405281019062000037919062000613565b33806000876040518060400160405280600681526020017f50696e6e696500000000000000000000000000000000000000000000000000008152506040518060400160405280600381526020017f50494e00000000000000000000000000000000000000000000000000000000008152508160009081620000b99190620008fb565b508060019081620000cb9190620008fb565b5050508073ffffffffffffffffffffffffffffffffffffffff1660808173ffffffffffffffffffffffffffffffffffffffff168152505050600073ffffffffffffffffffffffffffffffffffffffff168273ffffffffffffffffffffffffffffffffffffffff160362000175576040517f08c379a00000000000000000000000000000000000000000000000000000000081526004016200016c9062000a43565b60405180910390fd5b81600760006101000a81548173ffffffffffffffffffffffffffffffffffffffff021916908373ffffffffffffffffffffffffffffffffffffffff160217905550600073ffffffffffffffffffffffffffffffffffffffff168173ffffffffffffffffffffffffffffffffffffffff1614620001fd57620001fc816200027460201b60201c565b5b50505082600e9081620002119190620008fb565b50836009819055508160a0818152505042600f8190555080601060006101000a81548173ffffffffffffffffffffffffffffffffffffffff021916908373ffffffffffffffffffffffffffffffffffffffff160217905550505050505062000ad7565b3373ffffffffffffffffffffffffffffffffffffffff168173ffffffffffffffffffffffffffffffffffffffff1603620002e5576040517f08c379a0000000000000000000000000000000000000000000000000000000008152600401620002dc9062000ab5565b60405180910390fd5b80600860006101000a81548173ffffffffffffffffffffffffffffffffffffffff021916908373ffffffffffffffffffffffffffffffffffffffff1602179055508073ffffffffffffffffffffffffffffffffffffffff16600760009054906101000a900473ffffffffffffffffffffffffffffffffffffffff1673ffffffffffffffffffffffffffffffffffffffff167fed8889f560326eb138920d842192f0eb3dd22b4f139c87a2c57538e05bae127860405160405180910390a350565b6000604051905090565b600080fd5b600080fd5b600073ffffffffffffffffffffffffffffffffffffffff82169050919050565b6000620003e682620003b9565b9050919050565b620003f881620003d9565b81146200040457600080fd5b50565b6000815190506200041881620003ed565b92915050565b6000819050919050565b62000433816200041e565b81146200043f57600080fd5b50565b600081519050620004538162000428565b92915050565b600080fd5b600080fd5b6000601f19601f8301169050919050565b7f4e487b7100000000000000000000000000000000000000000000000000000000600052604160045260246000fd5b620004ae8262000463565b810181811067ffffffffffffffff82111715620004d057620004cf62000474565b5b80604052505050565b6000620004e5620003a5565b9050620004f38282620004a3565b919050565b600067ffffffffffffffff82111562000516576200051562000474565b5b620005218262000463565b9050602081019050919050565b60005b838110156200054e57808201518184015260208101905062000531565b60008484015250505050565b6000620005716200056b84620004f8565b620004d9565b90508281526020810184848401111562000590576200058f6200045e565b5b6200059d8482856200052e565b509392505050565b600082601f830112620005bd57620005bc62000459565b5b8151620005cf8482602086016200055a565b91505092915050565b6000819050919050565b620005ed81620005d8565b8114620005f957600080fd5b50565b6000815190506200060d81620005e2565b92915050565b600080600080600060a08688031215620006325762000631620003af565b5b6000620006428882890162000407565b9550506020620006558882890162000442565b945050604086015167ffffffffffffffff811115620006795762000678620003b4565b5b6200068788828901620005a5565b93505060606200069a88828901620005fc565b9250506080620006ad8882890162000407565b9150509295509295909350565b600081519050919050565b7f4e487b7100000000000000000000000000000000000000000000000000000000600052602260045260246000fd5b600060028204905060018216806200070d57607f821691505b602082108103620007235762000722620006c5565b5b50919050565b60008190508160005260206000209050919050565b60006020601f8301049050919050565b600082821b905092915050565b6000600883026200078d7fffffffffffffffffffffffffffffffffffffffffffffffffffffffffffffffff826200074e565b6200079986836200074e565b95508019841693508086168417925050509392505050565b6000819050919050565b6000620007dc620007d6620007d084620005d8565b620007b1565b620005d8565b9050919050565b6000819050919050565b620007f883620007bb565b620008106200080782620007e3565b8484546200075b565b825550505050565b600090565b6200082762000818565b62000834818484620007ed565b505050565b5b818110156200085c57620008506000826200081d565b6001810190506200083a565b5050565b601f821115620008ab57620008758162000729565b62000880846200073e565b8101602085101562000890578190505b620008a86200089f856200073e565b83018262000839565b50505b505050565b600082821c905092915050565b6000620008d060001984600802620008b0565b1980831691505092915050565b6000620008eb8383620008bd565b9150826002028217905092915050565b6200090682620006ba565b67ffffffffffffffff81111562000922576200092162000474565b5b6200092e8254620006f4565b6200093b82828562000860565b600060209050601f8311600181146200097357600084156200095e578287015190505b6200096a8582620008dd565b865550620009da565b601f198416620009838662000729565b60005b82811015620009ad5784890151825560018201915060208501945060208101905062000986565b86831015620009cd5784890151620009c9601f891682620008bd565b8355505b6001600288020188555050505b505050505050565b600082825260208201905092915050565b7f43616e6e6f7420736574206f776e657220746f207a65726f0000000000000000600082015250565b600062000a2b601883620009e2565b915062000a3882620009f3565b602082019050919050565b6000602082019050818103600083015262000a5e8162000a1c565b9050919050565b7f43616e6e6f74207472616e7366657220746f2073656c66000000000000000000600082015250565b600062000a9d601783620009e2565b915062000aaa8262000a65565b602082019050919050565b6000602082019050818103600083015262000ad08162000a8e565b9050919050565b60805160a0516148bd62000b1260003960008181610ac901528181610c280152610ef40152600081816106e0015261182901526148bd6000f3fe608060405234801561001057600080fd5b50600436106101f05760003560e01c806366d003ac1161010f57806395d89b41116100a2578063c87b56dd11610071578063c87b56dd14610570578063d0def521146105a0578063e985e9c5146105bc578063f2fde38b146105ec576101f0565b806395d89b41146104fc578063a22cb4651461051a578063b1e2174914610536578063b88d4fde14610554576101f0565b806379ba5097116100de57806379ba5097146104985780638da5cb5b146104a25780638dbe7b9d146104c0578063947a36fb146104de576101f0565b806366d003ac146103fd5780636e04ff0d1461041b57806370a082311461044c57806378ca5de71461047c576101f0565b80633944ea3a116101875780634b0795a8116101565780634b0795a81461037557806355f804b31461039357806361b8ce8c146103af5780636352211e146103cd576101f0565b80633944ea3a146103015780633f3b3b271461031f57806342842e0e1461033d5780634585e33b14610359576101f0565b80630ca76175116101c35780630ca761751461028f578063231c1619146102ab57806323b872dd146102c757806324822514146102e3576101f0565b806301ffc9a7146101f557806306fdde0314610225578063081812fc14610243578063095ea7b314610273575b600080fd5b61020f600480360381019061020a919061305f565b610608565b60405161021c91906130a7565b60405180910390f35b61022d61061a565b60405161023a9190613152565b60405180910390f35b61025d600480360381019061025891906131aa565b6106ac565b60405161026a9190613218565b60405180910390f35b61028d6004803603810190610288919061325f565b6106c8565b005b6102a960048036038101906102a4919061340a565b6106de565b005b6102c560048036038101906102c09190613698565b6107a0565b005b6102e160048036038101906102dc91906137bc565b61090b565b005b6102eb610a0d565b6040516102f8919061381e565b60405180910390f35b610309610a13565b604051610316919061388e565b60405180910390f35b610327610aa1565b604051610334919061381e565b60405180910390f35b610357600480360381019061035291906137bc565b610aa7565b005b610373600480360381019061036e91906138b0565b610ac7565b005b61037d610b37565b60405161038a919061388e565b60405180910390f35b6103ad60048036038101906103a8919061399e565b610bc5565b005b6103b7610be0565b6040516103c4919061381e565b60405180910390f35b6103e760048036038101906103e291906131aa565b610bea565b6040516103f49190613218565b60405180910390f35b610405610bfc565b6040516104129190613218565b60405180910390f35b610435600480360381019061043091906138b0565b610c22565b6040516104439291906139e7565b60405180910390f35b61046660048036038101906104619190613a17565b610c5f565b604051610473919061381e565b60405180910390f35b61049660048036038101906104919190613a44565b610d19565b005b6104a0610d2b565b005b6104aa610ec2565b6040516104b79190613218565b60405180910390f35b6104c8610eec565b6040516104d59190613a80565b60405180910390f35b6104e6610ef2565b6040516104f3919061381e565b60405180910390f35b610504610f16565b6040516105119190613152565b60405180910390f35b610534600480360381019061052f9190613ac7565b610fa8565b005b61053e610fbe565b60405161054b9190613a80565b60405180910390f35b61056e60048036038101906105699190613b07565b610fc4565b005b61058a600480360381019061058591906131aa565b610fe1565b6040516105979190613152565b60405180910390f35b6105ba60048036038101906105b59190613b8a565b610ff3565b005b6105d660048036038101906105d19190613be6565b61102f565b6040516105e391906130a7565b60405180910390f35b61060660048036038101906106019190613a17565b6110c3565b005b6000610613826110d7565b9050919050565b60606000805461062990613c55565b80601f016020809104026020016040519081016040528092919081815260200182805461065590613c55565b80156106a25780601f10610677576101008083540402835291602001916106a2565b820191906000526020600020905b81548152906001019060200180831161068557829003601f168201915b5050505050905090565b60006106b782611138565b506106c1826111c0565b9050919050565b6106da82826106d56111fd565b611205565b5050565b7f000000000000000000000000000000000000000000000000000000000000000073ffffffffffffffffffffffffffffffffffffffff163373ffffffffffffffffffffffffffffffffffffffff1614610763576040517fc6829f8300000000000000000000000000000000000000000000000000000000815260040160405180910390fd5b61076e838383611217565b827f85e1543bf2f84fe80c6badbce3648c8539ad1df4d2b3d822938ca0538be727e660405160405180910390a2505050565b6107a861123c565b6107b0612f47565b61080c6000808e8e8080601f016020809104026020016040519081016040528093929190818152602001838380828437600081840152601f19601f82011690508083019250505050505050846112ce909392919063ffffffff16565b898160200190600281111561082457610823613c86565b5b9081600281111561083857610837613c86565b5b8152505088888080601f016020809104026020016040519081016040528093929190818152602001838380828437600081840152601f19601f82011690508083019250505050505050816080018190525060008787905011156108b5576108b48787906108a59190613d68565b8261137890919063ffffffff16565b5b60008585905011156108e1576108e08585906108d19190613e30565b826113c090919063ffffffff16565b5b6108f76108ed82611408565b8484600954611824565b600a81905550505050505050505050505050565b600073ffffffffffffffffffffffffffffffffffffffff168273ffffffffffffffffffffffffffffffffffffffff160361097d5760006040517f64a0ae920000000000000000000000000000000000000000000000000000000081526004016109749190613218565b60405180910390fd5b6000610991838361098c6111fd565b611907565b90508373ffffffffffffffffffffffffffffffffffffffff168173ffffffffffffffffffffffffffffffffffffffff1614610a07578382826040517f64283d7b0000000000000000000000000000000000000000000000000000000081526004016109fe93929190613e45565b60405180910390fd5b50505050565b600d5481565b600b8054610a2090613c55565b80601f0160208091040260200160405190810160405280929190818152602001828054610a4c90613c55565b8015610a995780601f10610a6e57610100808354040283529160200191610a99565b820191906000526020600020905b815481529060010190602001808311610a7c57829003601f168201915b505050505081565b600f5481565b610ac283838360405180602001604052806000815250610fc4565b505050565b7f0000000000000000000000000000000000000000000000000000000000000000600f5442610af69190613eab565b1115610b335742600f81905550610b3233601060009054906101000a900473ffffffffffffffffffffffffffffffffffffffff16600d5461090b565b5b5050565b600c8054610b4490613c55565b80601f0160208091040260200160405190810160405280929190818152602001828054610b7090613c55565b8015610bbd5780601f10610b9257610100808354040283529160200191610bbd565b820191906000526020600020905b815481529060010190602001808311610ba057829003601f168201915b505050505081565b610bcd61123c565b80600e9081610bdc919061408b565b5050565b6000600d54905090565b6000610bf582611138565b9050919050565b601060009054906101000a900473ffffffffffffffffffffffffffffffffffffffff1681565b600060607f0000000000000000000000000000000000000000000000000000000000000000600f5442610c559190613eab565b1191509250929050565b60008073ffffffffffffffffffffffffffffffffffffffff168273ffffffffffffffffffffffffffffffffffffffff1603610cd25760006040517f89c62b64000000000000000000000000000000000000000000000000000000008152600401610cc99190613218565b60405180910390fd5b600360008373ffffffffffffffffffffffffffffffffffffffff1673ffffffffffffffffffffffffffffffffffffffff168152602001908152602001600020549050919050565b610d2161123c565b8060098190555050565b600860009054906101000a900473ffffffffffffffffffffffffffffffffffffffff1673ffffffffffffffffffffffffffffffffffffffff163373ffffffffffffffffffffffffffffffffffffffff1614610dbb576040517f08c379a0000000000000000000000000000000000000000000000000000000008152600401610db2906141a9565b60405180910390fd5b6000600760009054906101000a900473ffffffffffffffffffffffffffffffffffffffff16905033600760006101000a81548173ffffffffffffffffffffffffffffffffffffffff021916908373ffffffffffffffffffffffffffffffffffffffff1602179055506000600860006101000a81548173ffffffffffffffffffffffffffffffffffffffff021916908373ffffffffffffffffffffffffffffffffffffffff1602179055503373ffffffffffffffffffffffffffffffffffffffff168173ffffffffffffffffffffffffffffffffffffffff167f8be0079c531659141344cd1fd0a4f28419497f9722a3daafe3b4186f6b6457e060405160405180910390a350565b6000600760009054906101000a900473ffffffffffffffffffffffffffffffffffffffff16905090565b60095481565b7f000000000000000000000000000000000000000000000000000000000000000081565b606060018054610f2590613c55565b80601f0160208091040260200160405190810160405280929190818152602001828054610f5190613c55565b8015610f9e5780601f10610f7357610100808354040283529160200191610f9e565b820191906000526020600020905b815481529060010190602001808311610f8157829003601f168201915b5050505050905090565b610fba610fb36111fd565b8383611b21565b5050565b600a5481565b610fcf84848461090b565b610fdb84848484611c90565b50505050565b6060610fec82611e47565b9050919050565b610ffb61123c565b6000600d6000815480929190611010906141c9565b9190505590506110208382611f5a565b61102a8183612053565b505050565b6000600560008473ffffffffffffffffffffffffffffffffffffffff1673ffffffffffffffffffffffffffffffffffffffff16815260200190815260200160002060008373ffffffffffffffffffffffffffffffffffffffff1673ffffffffffffffffffffffffffffffffffffffff16815260200190815260200160002060009054906101000a900460ff16905092915050565b6110cb61123c565b6110d4816120af565b50565b6000634906490660e01b7bffffffffffffffffffffffffffffffffffffffffffffffffffffffff1916827bffffffffffffffffffffffffffffffffffffffffffffffffffffffff191614806111315750611130826121dd565b5b9050919050565b600080611144836122bf565b9050600073ffffffffffffffffffffffffffffffffffffffff168173ffffffffffffffffffffffffffffffffffffffff16036111b757826040517f7e2732890000000000000000000000000000000000000000000000000000000081526004016111ae919061381e565b60405180910390fd5b80915050919050565b60006004600083815260200190815260200160002060009054906101000a900473ffffffffffffffffffffffffffffffffffffffff169050919050565b600033905090565b61121283838360016122fc565b505050565b81600b9081611226919061426c565b5080600c9081611236919061426c565b50505050565b600760009054906101000a900473ffffffffffffffffffffffffffffffffffffffff1673ffffffffffffffffffffffffffffffffffffffff163373ffffffffffffffffffffffffffffffffffffffff16146112cc576040517f08c379a00000000000000000000000000000000000000000000000000000000081526004016112c39061438a565b60405180910390fd5b565b6000815103611309576040517f22ce3edd00000000000000000000000000000000000000000000000000000000815260040160405180910390fd5b828460000190600281111561132157611320613c86565b5b9081600281111561133557611334613c86565b5b81525050818460400190600081111561135157611350613c86565b5b9081600081111561136557611364613c86565b5b8152505080846060018190525050505050565b60008151036113b3576040517ffe936cb700000000000000000000000000000000000000000000000000000000815260040160405180910390fd5b808260a001819052505050565b60008151036113fb576040517ffe936cb700000000000000000000000000000000000000000000000000000000815260040160405180910390fd5b808260c001819052505050565b606060006114176101006124c1565b90506114616040518060400160405280600c81526020017f636f64654c6f636174696f6e0000000000000000000000000000000000000000815250826124e890919063ffffffff16565b61148a8360000151600281111561147b5761147a613c86565b5b8261251190919063ffffffff16565b6114d26040518060400160405280600881526020017f6c616e6775616765000000000000000000000000000000000000000000000000815250826124e890919063ffffffff16565b6114fb836040015160008111156114ec576114eb613c86565b5b8261251190919063ffffffff16565b6115436040518060400160405280600681526020017f736f757263650000000000000000000000000000000000000000000000000000815250826124e890919063ffffffff16565b61155a8360600151826124e890919063ffffffff16565b60008360a00151511115611616576115b06040518060400160405280600481526020017f6172677300000000000000000000000000000000000000000000000000000000815250826124e890919063ffffffff16565b6115b981612561565b60005b8360a001515181101561160b576115fa8460a0015182815181106115e3576115e26143aa565b5b6020026020010151836124e890919063ffffffff16565b80611604906141c9565b90506115bc565b5061161581612589565b5b60008360800151511115611757576000600281111561163857611637613c86565b5b8360200151600281111561164f5761164e613c86565b5b03611686576040517fa80d31f700000000000000000000000000000000000000000000000000000000815260040160405180910390fd5b6116ce6040518060400160405280600f81526020017f736563726574734c6f636174696f6e0000000000000000000000000000000000815250826124e890919063ffffffff16565b6116f7836020015160028111156116e8576116e7613c86565b5b8261251190919063ffffffff16565b61173f6040518060400160405280600781526020017f7365637265747300000000000000000000000000000000000000000000000000815250826124e890919063ffffffff16565b6117568360800151826125b190919063ffffffff16565b5b60008360c00151511115611813576117ad6040518060400160405280600981526020017f6279746573417267730000000000000000000000000000000000000000000000815250826124e890919063ffffffff16565b6117b681612561565b60005b8360c0015151811015611808576117f78460c0015182815181106117e0576117df6143aa565b5b6020026020010151836125b190919063ffffffff16565b80611801906141c9565b90506117b9565b5061181281612589565b5b806000015160000151915050919050565b6000807f000000000000000000000000000000000000000000000000000000000000000073ffffffffffffffffffffffffffffffffffffffff1663461d27628688600188886040518663ffffffff1660e01b8152600401611889959493929190614414565b6020604051808303816000875af11580156118a8573d6000803e3d6000fd5b505050506040513d601f19601f820116820180604052508101906118cc9190614483565b9050807f1131472297a800fee664d1d89cfa8f7676ff07189ecc53f80bbb5f4969099db860405160405180910390a280915050949350505050565b600080611913846122bf565b9050600073ffffffffffffffffffffffffffffffffffffffff168373ffffffffffffffffffffffffffffffffffffffff1614611955576119548184866125da565b5b600073ffffffffffffffffffffffffffffffffffffffff168173ffffffffffffffffffffffffffffffffffffffff16146119e6576119976000856000806122fc565b6001600360008373ffffffffffffffffffffffffffffffffffffffff1673ffffffffffffffffffffffffffffffffffffffff168152602001908152602001600020600082825403925050819055505b600073ffffffffffffffffffffffffffffffffffffffff168573ffffffffffffffffffffffffffffffffffffffff1614611a69576001600360008773ffffffffffffffffffffffffffffffffffffffff1673ffffffffffffffffffffffffffffffffffffffff168152602001908152602001600020600082825401925050819055505b846002600086815260200190815260200160002060006101000a81548173ffffffffffffffffffffffffffffffffffffffff021916908373ffffffffffffffffffffffffffffffffffffffff160217905550838573ffffffffffffffffffffffffffffffffffffffff168273ffffffffffffffffffffffffffffffffffffffff167fddf252ad1be2c89b69c2b068fc378daa952ba7f163c4a11628f55a4df523b3ef60405160405180910390a4809150509392505050565b600073ffffffffffffffffffffffffffffffffffffffff168273ffffffffffffffffffffffffffffffffffffffff1603611b9257816040517f5b08ba18000000000000000000000000000000000000000000000000000000008152600401611b899190613218565b60405180910390fd5b80600560008573ffffffffffffffffffffffffffffffffffffffff1673ffffffffffffffffffffffffffffffffffffffff16815260200190815260200160002060008473ffffffffffffffffffffffffffffffffffffffff1673ffffffffffffffffffffffffffffffffffffffff16815260200190815260200160002060006101000a81548160ff0219169083151502179055508173ffffffffffffffffffffffffffffffffffffffff168373ffffffffffffffffffffffffffffffffffffffff167f17307eab39ab6107e8899845ad3d59bd9653f200f220920489ca2b5937696c3183604051611c8391906130a7565b60405180910390a3505050565b60008373ffffffffffffffffffffffffffffffffffffffff163b1115611e41578273ffffffffffffffffffffffffffffffffffffffff1663150b7a02611cd46111fd565b8685856040518563ffffffff1660e01b8152600401611cf694939291906144b0565b6020604051808303816000875af1925050508015611d3257506040513d601f19601f82011682018060405250810190611d2f9190614511565b60015b611db6573d8060008114611d62576040519150601f19603f3d011682016040523d82523d6000602084013e611d67565b606091505b506000815103611dae57836040517f64a0ae92000000000000000000000000000000000000000000000000000000008152600401611da59190613218565b60405180910390fd5b805181602001fd5b63150b7a0260e01b7bffffffffffffffffffffffffffffffffffffffffffffffffffffffff1916817bffffffffffffffffffffffffffffffffffffffffffffffffffffffff191614611e3f57836040517f64a0ae92000000000000000000000000000000000000000000000000000000008152600401611e369190613218565b60405180910390fd5b505b50505050565b6060611e5282611138565b506000600660008481526020019081526020016000208054611e7390613c55565b80601f0160208091040260200160405190810160405280929190818152602001828054611e9f90613c55565b8015611eec5780601f10611ec157610100808354040283529160200191611eec565b820191906000526020600020905b815481529060010190602001808311611ecf57829003601f168201915b505050505090506000611efd61269e565b90506000815103611f12578192505050611f55565b600082511115611f47578082604051602001611f2f92919061457a565b60405160208183030381529060405292505050611f55565b611f5084612730565b925050505b919050565b600073ffffffffffffffffffffffffffffffffffffffff168273ffffffffffffffffffffffffffffffffffffffff1603611fcc5760006040517f64a0ae92000000000000000000000000000000000000000000000000000000008152600401611fc39190613218565b60405180910390fd5b6000611fda83836000611907565b9050600073ffffffffffffffffffffffffffffffffffffffff168173ffffffffffffffffffffffffffffffffffffffff161461204e5760006040517f73c6ac6e0000000000000000000000000000000000000000000000000000000081526004016120459190613218565b60405180910390fd5b505050565b80600660008481526020019081526020016000209081612073919061408b565b507ff8e1a15aba9398e019f0b49df1a4fde98ee17ae345cb5f6b5e2c27f5033e8ce7826040516120a3919061381e565b60405180910390a15050565b3373ffffffffffffffffffffffffffffffffffffffff168173ffffffffffffffffffffffffffffffffffffffff160361211d576040517f08c379a0000000000000000000000000000000000000000000000000000000008152600401612114906145ea565b60405180910390fd5b80600860006101000a81548173ffffffffffffffffffffffffffffffffffffffff021916908373ffffffffffffffffffffffffffffffffffffffff1602179055508073ffffffffffffffffffffffffffffffffffffffff16600760009054906101000a900473ffffffffffffffffffffffffffffffffffffffff1673ffffffffffffffffffffffffffffffffffffffff167fed8889f560326eb138920d842192f0eb3dd22b4f139c87a2c57538e05bae127860405160405180910390a350565b60007f80ac58cd000000000000000000000000000000000000000000000000000000007bffffffffffffffffffffffffffffffffffffffffffffffffffffffff1916827bffffffffffffffffffffffffffffffffffffffffffffffffffffffff191614806122a857507f5b5e139f000000000000000000000000000000000000000000000000000000007bffffffffffffffffffffffffffffffffffffffffffffffffffffffff1916827bffffffffffffffffffffffffffffffffffffffffffffffffffffffff1916145b806122b857506122b782612799565b5b9050919050565b60006002600083815260200190815260200160002060009054906101000a900473ffffffffffffffffffffffffffffffffffffffff169050919050565b80806123355750600073ffffffffffffffffffffffffffffffffffffffff168273ffffffffffffffffffffffffffffffffffffffff1614155b1561246957600061234584611138565b9050600073ffffffffffffffffffffffffffffffffffffffff168373ffffffffffffffffffffffffffffffffffffffff16141580156123b057508273ffffffffffffffffffffffffffffffffffffffff168173ffffffffffffffffffffffffffffffffffffffff1614155b80156123c357506123c1818461102f565b155b1561240557826040517fa9fbf51f0000000000000000000000000000000000000000000000000000000081526004016123fc9190613218565b60405180910390fd5b811561246757838573ffffffffffffffffffffffffffffffffffffffff168273ffffffffffffffffffffffffffffffffffffffff167f8c5be1e5ebec7d5bd14f71427d1e84f3dd0314c0f7b2291e5b200ac8c7c3b92560405160405180910390a45b505b836004600085815260200190815260200160002060006101000a81548173ffffffffffffffffffffffffffffffffffffffff021916908373ffffffffffffffffffffffffffffffffffffffff16021790555050505050565b6124c9612fb9565b6124d7816000015183612803565b506000816020018181525050919050565b6124f5826003835161287c565b61250c818360000151612a2590919063ffffffff16565b505050565b61253360026005600660ff16901b178360000151612a4190919063ffffffff16565b5061255d8282604051602001612549919061381e565b6040516020818303038152906040526125b1565b5050565b61256c816004612aab565b60018160200181815161257f919061460a565b9150818152505050565b612594816007612aab565b6001816020018181516125a79190613eab565b9150818152505050565b6125be826002835161287c565b6125d5818360000151612a2590919063ffffffff16565b505050565b6125e5838383612ad1565b61269957600073ffffffffffffffffffffffffffffffffffffffff168373ffffffffffffffffffffffffffffffffffffffff160361265a57806040517f7e273289000000000000000000000000000000000000000000000000000000008152600401612651919061381e565b60405180910390fd5b81816040517f177e802f00000000000000000000000000000000000000000000000000000000815260040161269092919061463e565b60405180910390fd5b505050565b6060600e80546126ad90613c55565b80601f01602080910402602001604051908101604052809291908181526020018280546126d990613c55565b80156127265780601f106126fb57610100808354040283529160200191612726565b820191906000526020600020905b81548152906001019060200180831161270957829003601f168201915b5050505050905090565b606061273b82611138565b50600061274661269e565b905060008151116127665760405180602001604052806000815250612791565b8061277084612b92565b60405160200161278192919061457a565b6040516020818303038152906040525b915050919050565b60007f01ffc9a7000000000000000000000000000000000000000000000000000000007bffffffffffffffffffffffffffffffffffffffffffffffffffffffff1916827bffffffffffffffffffffffffffffffffffffffffffffffffffffffff1916149050919050565b61280b612fd9565b600060208361281a9190614696565b146128465760208261282c9190614696565b60206128389190613eab565b82612843919061460a565b91505b81836020018181525050604051808452600081528281016020018181101561286d57600080fd5b80604052505082905092915050565b60178167ffffffffffffffff16116128b7576128b18160058460ff16901b60ff16178460000151612a4190919063ffffffff16565b50612a20565b60ff8167ffffffffffffffff1611612915576128ea601860058460ff16901b178460000151612a4190919063ffffffff16565b5061290f8167ffffffffffffffff1660018560000151612c609092919063ffffffff16565b50612a1f565b61ffff8167ffffffffffffffff161161297457612949601960058460ff16901b178460000151612a4190919063ffffffff16565b5061296e8167ffffffffffffffff1660028560000151612c609092919063ffffffff16565b50612a1e565b63ffffffff8167ffffffffffffffff16116129d5576129aa601a60058460ff16901b178460000151612a4190919063ffffffff16565b506129cf8167ffffffffffffffff1660048560000151612c609092919063ffffffff16565b50612a1d565b6129f6601b60058460ff16901b178460000151612a4190919063ffffffff16565b50612a1b8167ffffffffffffffff1660088560000151612c609092919063ffffffff16565b505b5b5b5b505050565b612a2d612fd9565b612a3983838451612ced565b905092915050565b612a49612fd9565b600083600001515190506000600182612a62919061460a565b905084602001518210612a8657612a8585600283612a8091906146c7565b612dd0565b5b84516020838201018581538151831115612a9e578282525b5050849250505092915050565b612acc601f60058360ff16901b178360000151612a4190919063ffffffff16565b505050565b60008073ffffffffffffffffffffffffffffffffffffffff168373ffffffffffffffffffffffffffffffffffffffff1614158015612b8957508273ffffffffffffffffffffffffffffffffffffffff168473ffffffffffffffffffffffffffffffffffffffff161480612b4a5750612b49848461102f565b5b80612b8857508273ffffffffffffffffffffffffffffffffffffffff16612b70836111c0565b73ffffffffffffffffffffffffffffffffffffffff16145b5b90509392505050565b606060006001612ba184612df4565b01905060008167ffffffffffffffff811115612bc057612bbf6132df565b5b6040519080825280601f01601f191660200182016040528015612bf25781602001600182028036833780820191505090505b509050600082602001820190505b600115612c55578080600190039150507f3031323334353637383961626364656600000000000000000000000000000000600a86061a8153600a8581612c4957612c48614667565b5b04945060008503612c00575b819350505050919050565b612c68612fd9565b6000846000015151905060008184612c80919061460a565b90508560200151811115612ca557612ca486600283612c9f91906146c7565b612dd0565b5b6000600185610100612cb7919061483c565b612cc19190613eab565b905086518281018783198251161781528151841115612cde578382525b50508693505050509392505050565b612cf5612fd9565b8251821115612d0357600080fd5b6000846000015151905060008382612d1b919061460a565b90508560200151811115612d4057612d3f86600283612d3a91906146c7565b612dd0565b5b60008087518051856020830101935080851115612d5b578482525b60208901925050505b60208610612da25780518252602082612d7d919061460a565b9150602081612d8c919061460a565b9050602086612d9b9190613eab565b9550612d64565b60006001876020036101000a0390508019825116818451168181178552505050879450505050509392505050565b600082600001519050612de38383612803565b50612dee8382612a25565b50505050565b600080600090507a184f03e93ff9f4daa797ed6e38ed64bf6a1f0100000000000000008310612e52577a184f03e93ff9f4daa797ed6e38ed64bf6a1f0100000000000000008381612e4857612e47614667565b5b0492506040810190505b6d04ee2d6d415b85acef81000000008310612e8f576d04ee2d6d415b85acef81000000008381612e8557612e84614667565b5b0492506020810190505b662386f26fc100008310612ebe57662386f26fc100008381612eb457612eb3614667565b5b0492506010810190505b6305f5e1008310612ee7576305f5e1008381612edd57612edc614667565b5b0492506008810190505b6127108310612f0c576127108381612f0257612f01614667565b5b0492506004810190505b60648310612f2f5760648381612f2557612f24614667565b5b0492506002810190505b600a8310612f3e576001810190505b80915050919050565b6040518060e0016040528060006002811115612f6657612f65613c86565b5b815260200160006002811115612f7f57612f7e613c86565b5b8152602001600080811115612f9757612f96613c86565b5b8152602001606081526020016060815260200160608152602001606081525090565b6040518060400160405280612fcc612fd9565b8152602001600081525090565b604051806040016040528060608152602001600081525090565b6000604051905090565b600080fd5b600080fd5b60007fffffffff0000000000000000000000000000000000000000000000000000000082169050919050565b61303c81613007565b811461304757600080fd5b50565b60008135905061305981613033565b92915050565b60006020828403121561307557613074612ffd565b5b60006130838482850161304a565b91505092915050565b60008115159050919050565b6130a18161308c565b82525050565b60006020820190506130bc6000830184613098565b92915050565b600081519050919050565b600082825260208201905092915050565b60005b838110156130fc5780820151818401526020810190506130e1565b60008484015250505050565b6000601f19601f8301169050919050565b6000613124826130c2565b61312e81856130cd565b935061313e8185602086016130de565b61314781613108565b840191505092915050565b6000602082019050818103600083015261316c8184613119565b905092915050565b6000819050919050565b61318781613174565b811461319257600080fd5b50565b6000813590506131a48161317e565b92915050565b6000602082840312156131c0576131bf612ffd565b5b60006131ce84828501613195565b91505092915050565b600073ffffffffffffffffffffffffffffffffffffffff82169050919050565b6000613202826131d7565b9050919050565b613212816131f7565b82525050565b600060208201905061322d6000830184613209565b92915050565b61323c816131f7565b811461324757600080fd5b50565b60008135905061325981613233565b92915050565b6000806040838503121561327657613275612ffd565b5b60006132848582860161324a565b925050602061329585828601613195565b9150509250929050565b6000819050919050565b6132b28161329f565b81146132bd57600080fd5b50565b6000813590506132cf816132a9565b92915050565b600080fd5b600080fd5b7f4e487b7100000000000000000000000000000000000000000000000000000000600052604160045260246000fd5b61331782613108565b810181811067ffffffffffffffff82111715613336576133356132df565b5b80604052505050565b6000613349612ff3565b9050613355828261330e565b919050565b600067ffffffffffffffff821115613375576133746132df565b5b61337e82613108565b9050602081019050919050565b82818337600083830152505050565b60006133ad6133a88461335a565b61333f565b9050828152602081018484840111156133c9576133c86132da565b5b6133d484828561338b565b509392505050565b600082601f8301126133f1576133f06132d5565b5b813561340184826020860161339a565b91505092915050565b60008060006060848603121561342357613422612ffd565b5b6000613431868287016132c0565b935050602084013567ffffffffffffffff81111561345257613451613002565b5b61345e868287016133dc565b925050604084013567ffffffffffffffff81111561347f5761347e613002565b5b61348b868287016133dc565b9150509250925092565b600080fd5b600080fd5b60008083601f8401126134b5576134b46132d5565b5b8235905067ffffffffffffffff8111156134d2576134d1613495565b5b6020830191508360018202830111156134ee576134ed61349a565b5b9250929050565b6003811061350257600080fd5b50565b600081359050613514816134f5565b92915050565b60008083601f8401126135305761352f6132d5565b5b8235905067ffffffffffffffff81111561354d5761354c613495565b5b6020830191508360018202830111156135695761356861349a565b5b9250929050565b60008083601f840112613586576135856132d5565b5b8235905067ffffffffffffffff8111156135a3576135a2613495565b5b6020830191508360208202830111156135bf576135be61349a565b5b9250929050565b60008083601f8401126135dc576135db6132d5565b5b8235905067ffffffffffffffff8111156135f9576135f8613495565b5b6020830191508360208202830111156136155761361461349a565b5b9250929050565b600067ffffffffffffffff82169050919050565b6136398161361c565b811461364457600080fd5b50565b60008135905061365681613630565b92915050565b600063ffffffff82169050919050565b6136758161365c565b811461368057600080fd5b50565b6000813590506136928161366c565b92915050565b600080600080600080600080600080600060e08c8e0312156136bd576136bc612ffd565b5b60008c013567ffffffffffffffff8111156136db576136da613002565b5b6136e78e828f0161349f565b9b509b505060206136fa8e828f01613505565b99505060408c013567ffffffffffffffff81111561371b5761371a613002565b5b6137278e828f0161351a565b985098505060608c013567ffffffffffffffff81111561374a57613749613002565b5b6137568e828f01613570565b965096505060808c013567ffffffffffffffff81111561377957613778613002565b5b6137858e828f016135c6565b945094505060a06137988e828f01613647565b92505060c06137a98e828f01613683565b9150509295989b509295989b9093969950565b6000806000606084860312156137d5576137d4612ffd565b5b60006137e38682870161324a565b93505060206137f48682870161324a565b925050604061380586828701613195565b9150509250925092565b61381881613174565b82525050565b6000602082019050613833600083018461380f565b92915050565b600081519050919050565b600082825260208201905092915050565b600061386082613839565b61386a8185613844565b935061387a8185602086016130de565b61388381613108565b840191505092915050565b600060208201905081810360008301526138a88184613855565b905092915050565b600080602083850312156138c7576138c6612ffd565b5b600083013567ffffffffffffffff8111156138e5576138e4613002565b5b6138f18582860161351a565b92509250509250929050565b600067ffffffffffffffff821115613918576139176132df565b5b61392182613108565b9050602081019050919050565b600061394161393c846138fd565b61333f565b90508281526020810184848401111561395d5761395c6132da565b5b61396884828561338b565b509392505050565b600082601f830112613985576139846132d5565b5b813561399584826020860161392e565b91505092915050565b6000602082840312156139b4576139b3612ffd565b5b600082013567ffffffffffffffff8111156139d2576139d1613002565b5b6139de84828501613970565b91505092915050565b60006040820190506139fc6000830185613098565b8181036020830152613a0e8184613855565b90509392505050565b600060208284031215613a2d57613a2c612ffd565b5b6000613a3b8482850161324a565b91505092915050565b600060208284031215613a5a57613a59612ffd565b5b6000613a68848285016132c0565b91505092915050565b613a7a8161329f565b82525050565b6000602082019050613a956000830184613a71565b92915050565b613aa48161308c565b8114613aaf57600080fd5b50565b600081359050613ac181613a9b565b92915050565b60008060408385031215613ade57613add612ffd565b5b6000613aec8582860161324a565b9250506020613afd85828601613ab2565b9150509250929050565b60008060008060808587031215613b2157613b20612ffd565b5b6000613b2f8782880161324a565b9450506020613b408782880161324a565b9350506040613b5187828801613195565b925050606085013567ffffffffffffffff811115613b7257613b71613002565b5b613b7e878288016133dc565b91505092959194509250565b60008060408385031215613ba157613ba0612ffd565b5b6000613baf8582860161324a565b925050602083013567ffffffffffffffff811115613bd057613bcf613002565b5b613bdc85828601613970565b9150509250929050565b60008060408385031215613bfd57613bfc612ffd565b5b6000613c0b8582860161324a565b9250506020613c1c8582860161324a565b9150509250929050565b7f4e487b7100000000000000000000000000000000000000000000000000000000600052602260045260246000fd5b60006002820490506001821680613c6d57607f821691505b602082108103613c8057613c7f613c26565b5b50919050565b7f4e487b7100000000000000000000000000000000000000000000000000000000600052602160045260246000fd5b600067ffffffffffffffff821115613cd057613ccf6132df565b5b602082029050602081019050919050565b6000613cf4613cef84613cb5565b61333f565b90508083825260208201905060208402830185811115613d1757613d1661349a565b5b835b81811015613d5e57803567ffffffffffffffff811115613d3c57613d3b6132d5565b5b808601613d498982613970565b85526020850194505050602081019050613d19565b5050509392505050565b6000613d75368484613ce1565b905092915050565b600067ffffffffffffffff821115613d9857613d976132df565b5b602082029050602081019050919050565b6000613dbc613db784613d7d565b61333f565b90508083825260208201905060208402830185811115613ddf57613dde61349a565b5b835b81811015613e2657803567ffffffffffffffff811115613e0457613e036132d5565b5b808601613e1189826133dc565b85526020850194505050602081019050613de1565b5050509392505050565b6000613e3d368484613da9565b905092915050565b6000606082019050613e5a6000830186613209565b613e67602083018561380f565b613e746040830184613209565b949350505050565b7f4e487b7100000000000000000000000000000000000000000000000000000000600052601160045260246000fd5b6000613eb682613174565b9150613ec183613174565b9250828203905081811115613ed957613ed8613e7c565b5b92915050565b60008190508160005260206000209050919050565b60006020601f8301049050919050565b600082821b905092915050565b600060088302613f417fffffffffffffffffffffffffffffffffffffffffffffffffffffffffffffffff82613f04565b613f4b8683613f04565b95508019841693508086168417925050509392505050565b6000819050919050565b6000613f88613f83613f7e84613174565b613f63565b613174565b9050919050565b6000819050919050565b613fa283613f6d565b613fb6613fae82613f8f565b848454613f11565b825550505050565b600090565b613fcb613fbe565b613fd6818484613f99565b505050565b5b81811015613ffa57613fef600082613fc3565b600181019050613fdc565b5050565b601f82111561403f5761401081613edf565b61401984613ef4565b81016020851015614028578190505b61403c61403485613ef4565b830182613fdb565b50505b505050565b600082821c905092915050565b600061406260001984600802614044565b1980831691505092915050565b600061407b8383614051565b9150826002028217905092915050565b614094826130c2565b67ffffffffffffffff8111156140ad576140ac6132df565b5b6140b78254613c55565b6140c2828285613ffe565b600060209050601f8311600181146140f557600084156140e3578287015190505b6140ed858261406f565b865550614155565b601f19841661410386613edf565b60005b8281101561412b57848901518255600182019150602085019450602081019050614106565b868310156141485784890151614144601f891682614051565b8355505b6001600288020188555050505b505050505050565b7f4d7573742062652070726f706f736564206f776e657200000000000000000000600082015250565b60006141936016836130cd565b915061419e8261415d565b602082019050919050565b600060208201905081810360008301526141c281614186565b9050919050565b60006141d482613174565b91507fffffffffffffffffffffffffffffffffffffffffffffffffffffffffffffffff820361420657614205613e7c565b5b600182019050919050565b60008190508160005260206000209050919050565b601f8211156142675761423881614211565b61424184613ef4565b81016020851015614250578190505b61426461425c85613ef4565b830182613fdb565b50505b505050565b61427582613839565b67ffffffffffffffff81111561428e5761428d6132df565b5b6142988254613c55565b6142a3828285614226565b600060209050601f8311600181146142d657600084156142c4578287015190505b6142ce858261406f565b865550614336565b601f1984166142e486614211565b60005b8281101561430c578489015182556001820191506020850194506020810190506142e7565b868310156143295784890151614325601f891682614051565b8355505b6001600288020188555050505b505050505050565b7f4f6e6c792063616c6c61626c65206279206f776e657200000000000000000000600082015250565b60006143746016836130cd565b915061437f8261433e565b602082019050919050565b600060208201905081810360008301526143a381614367565b9050919050565b7f4e487b7100000000000000000000000000000000000000000000000000000000600052603260045260246000fd5b6143e28161361c565b82525050565b600061ffff82169050919050565b6143ff816143e8565b82525050565b61440e8161365c565b82525050565b600060a08201905061442960008301886143d9565b818103602083015261443b8187613855565b905061444a60408301866143f6565b6144576060830185614405565b6144646080830184613a71565b9695505050505050565b60008151905061447d816132a9565b92915050565b60006020828403121561449957614498612ffd565b5b60006144a78482850161446e565b91505092915050565b60006080820190506144c56000830187613209565b6144d26020830186613209565b6144df604083018561380f565b81810360608301526144f18184613855565b905095945050505050565b60008151905061450b81613033565b92915050565b60006020828403121561452757614526612ffd565b5b6000614535848285016144fc565b91505092915050565b600081905092915050565b6000614554826130c2565b61455e818561453e565b935061456e8185602086016130de565b80840191505092915050565b60006145868285614549565b91506145928284614549565b91508190509392505050565b7f43616e6e6f74207472616e7366657220746f2073656c66000000000000000000600082015250565b60006145d46017836130cd565b91506145df8261459e565b602082019050919050565b60006020820190508181036000830152614603816145c7565b9050919050565b600061461582613174565b915061462083613174565b925082820190508082111561463857614637613e7c565b5b92915050565b60006040820190506146536000830185613209565b614660602083018461380f565b9392505050565b7f4e487b7100000000000000000000000000000000000000000000000000000000600052601260045260246000fd5b60006146a182613174565b91506146ac83613174565b9250826146bc576146bb614667565b5b828206905092915050565b60006146d282613174565b91506146dd83613174565b92508282026146eb81613174565b9150828204841483151761470257614701613e7c565b5b5092915050565b60008160011c9050919050565b6000808291508390505b60018511156147605780860481111561473c5761473b613e7c565b5b600185161561474b5780820291505b808102905061475985614709565b9450614720565b94509492505050565b6000826147795760019050614835565b816147875760009050614835565b816001811461479d57600281146147a7576147d6565b6001915050614835565b60ff8411156147b9576147b8613e7c565b5b8360020a9150848211156147d0576147cf613e7c565b5b50614835565b5060208310610133831016604e8410600b841016171561480b5782820a90508381111561480657614805613e7c565b5b614835565b6148188484846001614716565b9250905081840481111561482f5761482e613e7c565b5b81810290505b9392505050565b600061484782613174565b915061485283613174565b925061487f7fffffffffffffffffffffffffffffffffffffffffffffffffffffffffffffffff8484614769565b90509291505056fea26469706673582212204127dbf3f28a339e31ae0130f48bf5add953a5304b16b4fa1cf7acada39ae50b64736f6c63430008140033",
  "linkReferences": {},
  "deployedLinkReferences": {}
}